{
	"SimpleStorage.sol": {
		"SimpleStorage": {
			"abi": [
				{
					"inputs": [
						{
							"internalType": "string",
							"name": "",
							"type": "string"
						}
					],
					"name": "nameToNumber",
					"outputs": [
						{
							"internalType": "uint256",
							"name": "",
							"type": "uint256"
						}
					],
					"stateMutability": "view",
					"type": "function"
				},
				{
					"inputs": [],
					"name": "retreiveFavNumber",
					"outputs": [
						{
							"internalType": "uint256",
							"name": "",
							"type": "uint256"
						}
					],
					"stateMutability": "view",
					"type": "function"
				},
				{
					"inputs": [
						{
							"internalType": "uint256",
							"name": "index",
							"type": "uint256"
						}
					],
					"name": "retreiveFavNumberAtIndex",
					"outputs": [
						{
							"internalType": "uint256",
							"name": "",
							"type": "uint256"
						}
					],
					"stateMutability": "view",
					"type": "function"
				},
				{
					"inputs": [
						{
							"internalType": "uint256",
							"name": "index",
							"type": "uint256"
						}
					],
					"name": "retreivePersonAtIndex",
					"outputs": [
						{
							"components": [
								{
									"internalType": "uint256",
									"name": "number",
									"type": "uint256"
								},
								{
									"internalType": "string",
									"name": "name",
									"type": "string"
								}
							],
							"internalType": "struct SimpleStorage.Person",
							"name": "",
							"type": "tuple"
						}
					],
					"stateMutability": "view",
					"type": "function"
				},
				{
					"inputs": [
						{
							"internalType": "string",
							"name": "name",
							"type": "string"
						}
					],
					"name": "retreivePersonFromName",
					"outputs": [
						{
							"internalType": "uint256",
							"name": "",
							"type": "uint256"
						}
					],
					"stateMutability": "view",
					"type": "function"
				},
				{
					"inputs": [
						{
							"internalType": "uint256",
							"name": "_favouriteNumber",
							"type": "uint256"
						}
					],
					"name": "store",
					"outputs": [],
					"stateMutability": "nonpayable",
					"type": "function"
				},
				{
					"inputs": [
						{
							"internalType": "uint256",
							"name": "_favouriteNumber",
							"type": "uint256"
						},
						{
							"internalType": "string",
							"name": "name",
							"type": "string"
						}
					],
					"name": "storePerson",
					"outputs": [],
					"stateMutability": "nonpayable",
					"type": "function"
				}
			],
			"devdoc": {
				"kind": "dev",
				"methods": {},
				"version": 1
			},
			"evm": {
				"assembly": "    /* \"SimpleStorage.sol\":73:1445  contract SimpleStorage {... */\n  mstore(0x40, 0x80)\n  callvalue\n  dup1\n  iszero\n  tag_1\n  jumpi\n  0x00\n  dup1\n  revert\ntag_1:\n  pop\n  dataSize(sub_0)\n  dup1\n  dataOffset(sub_0)\n  0x00\n  codecopy\n  0x00\n  return\nstop\n\nsub_0: assembly {\n        /* \"SimpleStorage.sol\":73:1445  contract SimpleStorage {... */\n      mstore(0x40, 0x80)\n      callvalue\n      dup1\n      iszero\n      tag_1\n      jumpi\n      0x00\n      dup1\n      revert\n    tag_1:\n      pop\n      jumpi(tag_2, lt(calldatasize, 0x04))\n      shr(0xe0, calldataload(0x00))\n      dup1\n      0x5cb4c672\n      gt\n      tag_10\n      jumpi\n      dup1\n      0x5cb4c672\n      eq\n      tag_6\n      jumpi\n      dup1\n      0x6057361d\n      eq\n      tag_7\n      jumpi\n      dup1\n      0x96c89e5c\n      eq\n      tag_8\n      jumpi\n      dup1\n      0xd7afc1dc\n      eq\n      tag_9\n      jumpi\n      jump(tag_2)\n    tag_10:\n      dup1\n      0x2fae4ffd\n      eq\n      tag_3\n      jumpi\n      dup1\n      0x3aade401\n      eq\n      tag_4\n      jumpi\n      dup1\n      0x5bae7047\n      eq\n      tag_5\n      jumpi\n    tag_2:\n      0x00\n      dup1\n      revert\n        /* \"SimpleStorage.sol\":193:237  mapping(string=>uint256) public nameToNumber */\n    tag_3:\n      tag_11\n      0x04\n      dup1\n      calldatasize\n      sub\n      dup2\n      add\n      swap1\n      tag_12\n      swap2\n      swap1\n      tag_13\n      jump\t// in\n    tag_12:\n      tag_14\n      jump\t// in\n    tag_11:\n      mload(0x40)\n      tag_15\n      swap2\n      swap1\n      tag_16\n      jump\t// in\n    tag_15:\n      mload(0x40)\n      dup1\n      swap2\n      sub\n      swap1\n      return\n        /* \"SimpleStorage.sol\":681:780  function retreiveFavNumber()public view returns (uint256) {... */\n    tag_4:\n      tag_17\n      tag_18\n      jump\t// in\n    tag_17:\n      mload(0x40)\n      tag_19\n      swap2\n      swap1\n      tag_16\n      jump\t// in\n    tag_19:\n      mload(0x40)\n      dup1\n      swap2\n      sub\n      swap1\n      return\n        /* \"SimpleStorage.sol\":1005:1220  function retreivePersonAtIndex(uint256 index)public view returns ( Person memory) {... */\n    tag_5:\n      tag_20\n      0x04\n      dup1\n      calldatasize\n      sub\n      dup2\n      add\n      swap1\n      tag_21\n      swap2\n      swap1\n      tag_22\n      jump\t// in\n    tag_21:\n      tag_23\n      jump\t// in\n    tag_20:\n      mload(0x40)\n      tag_24\n      swap2\n      swap1\n      tag_25\n      jump\t// in\n    tag_24:\n      mload(0x40)\n      dup1\n      swap2\n      sub\n      swap1\n      return\n        /* \"SimpleStorage.sol\":475:673  function storePerson(uint256 _favouriteNumber, string calldata name) public  {... */\n    tag_6:\n      tag_26\n      0x04\n      dup1\n      calldatasize\n      sub\n      dup2\n      add\n      swap1\n      tag_27\n      swap2\n      swap1\n      tag_28\n      jump\t// in\n    tag_27:\n      tag_29\n      jump\t// in\n    tag_26:\n      stop\n        /* \"SimpleStorage.sol\":317:468  function store(uint256 _favouriteNumber) public  {... */\n    tag_7:\n      tag_30\n      0x04\n      dup1\n      calldatasize\n      sub\n      dup2\n      add\n      swap1\n      tag_31\n      swap2\n      swap1\n      tag_22\n      jump\t// in\n    tag_31:\n      tag_32\n      jump\t// in\n    tag_30:\n      stop\n        /* \"SimpleStorage.sol\":1225:1442  function retreivePersonFromName(string calldata name)public view returns (uint256) {... */\n    tag_8:\n      tag_33\n      0x04\n      dup1\n      calldatasize\n      sub\n      dup2\n      add\n      swap1\n      tag_34\n      swap2\n      swap1\n      tag_35\n      jump\t// in\n    tag_34:\n      tag_36\n      jump\t// in\n    tag_33:\n      mload(0x40)\n      tag_37\n      swap2\n      swap1\n      tag_16\n      jump\t// in\n    tag_37:\n      mload(0x40)\n      dup1\n      swap2\n      sub\n      swap1\n      return\n        /* \"SimpleStorage.sol\":791:999  function retreiveFavNumberAtIndex(uint256 index)public view returns (uint256) {... */\n    tag_9:\n      tag_38\n      0x04\n      dup1\n      calldatasize\n      sub\n      dup2\n      add\n      swap1\n      tag_39\n      swap2\n      swap1\n      tag_22\n      jump\t// in\n    tag_39:\n      tag_40\n      jump\t// in\n    tag_38:\n      mload(0x40)\n      tag_41\n      swap2\n      swap1\n      tag_16\n      jump\t// in\n    tag_41:\n      mload(0x40)\n      dup1\n      swap2\n      sub\n      swap1\n      return\n        /* \"SimpleStorage.sol\":193:237  mapping(string=>uint256) public nameToNumber */\n    tag_14:\n      0x03\n      dup2\n      dup1\n      mload\n      0x20\n      dup2\n      add\n      dup3\n      add\n      dup1\n      mload\n      dup5\n      dup3\n      mstore\n      0x20\n      dup4\n      add\n      0x20\n      dup6\n      add\n      keccak256\n      dup2\n      dup4\n      mstore\n      dup1\n      swap6\n      pop\n      pop\n      pop\n      pop\n      pop\n      pop\n      0x00\n      swap2\n      pop\n      swap1\n      pop\n      sload\n      dup2\n      jump\t// out\n        /* \"SimpleStorage.sol\":681:780  function retreiveFavNumber()public view returns (uint256) {... */\n    tag_18:\n        /* \"SimpleStorage.sol\":730:737  uint256 */\n      0x00\n        /* \"SimpleStorage.sol\":757:772  favouriteNumber */\n      dup1\n      sload\n        /* \"SimpleStorage.sol\":749:772  return  favouriteNumber */\n      swap1\n      pop\n        /* \"SimpleStorage.sol\":681:780  function retreiveFavNumber()public view returns (uint256) {... */\n      swap1\n      jump\t// out\n        /* \"SimpleStorage.sol\":1005:1220  function retreivePersonAtIndex(uint256 index)public view returns ( Person memory) {... */\n    tag_23:\n        /* \"SimpleStorage.sol\":1072:1085  Person memory */\n      tag_43\n      tag_44\n      jump\t// in\n    tag_43:\n        /* \"SimpleStorage.sol\":1195:1205  peopleList */\n      0x02\n        /* \"SimpleStorage.sol\":1206:1211  index */\n      dup3\n        /* \"SimpleStorage.sol\":1195:1212  peopleList[index] */\n      dup2\n      sload\n      dup2\n      lt\n      tag_46\n      jumpi\n      tag_47\n      tag_48\n      jump\t// in\n    tag_47:\n    tag_46:\n      swap1\n      0x00\n      mstore\n      keccak256(0x00, 0x20)\n      swap1\n      0x02\n      mul\n      add\n        /* \"SimpleStorage.sol\":1187:1212  return  peopleList[index] */\n      mload(0x40)\n      dup1\n      0x40\n      add\n      0x40\n      mstore\n      swap1\n      dup2\n      0x00\n      dup3\n      add\n      sload\n      dup2\n      mstore\n      0x20\n      add\n      0x01\n      dup3\n      add\n      dup1\n      sload\n      tag_50\n      swap1\n      tag_51\n      jump\t// in\n    tag_50:\n      dup1\n      0x1f\n      add\n      0x20\n      dup1\n      swap2\n      div\n      mul\n      0x20\n      add\n      mload(0x40)\n      swap1\n      dup2\n      add\n      0x40\n      mstore\n      dup1\n      swap3\n      swap2\n      swap1\n      dup2\n      dup2\n      mstore\n      0x20\n      add\n      dup3\n      dup1\n      sload\n      tag_52\n      swap1\n      tag_51\n      jump\t// in\n    tag_52:\n      dup1\n      iszero\n      tag_53\n      jumpi\n      dup1\n      0x1f\n      lt\n      tag_54\n      jumpi\n      0x0100\n      dup1\n      dup4\n      sload\n      div\n      mul\n      dup4\n      mstore\n      swap2\n      0x20\n      add\n      swap2\n      jump(tag_53)\n    tag_54:\n      dup3\n      add\n      swap2\n      swap1\n      0x00\n      mstore\n      keccak256(0x00, 0x20)\n      swap1\n    tag_55:\n      dup2\n      sload\n      dup2\n      mstore\n      swap1\n      0x01\n      add\n      swap1\n      0x20\n      add\n      dup1\n      dup4\n      gt\n      tag_55\n      jumpi\n      dup3\n      swap1\n      sub\n      0x1f\n      and\n      dup3\n      add\n      swap2\n    tag_53:\n      pop\n      pop\n      pop\n      pop\n      pop\n      dup2\n      mstore\n      pop\n      pop\n      swap1\n      pop\n        /* \"SimpleStorage.sol\":1005:1220  function retreivePersonAtIndex(uint256 index)public view returns ( Person memory) {... */\n      swap2\n      swap1\n      pop\n      jump\t// out\n        /* \"SimpleStorage.sol\":475:673  function storePerson(uint256 _favouriteNumber, string calldata name) public  {... */\n    tag_29:\n        /* \"SimpleStorage.sol\":563:573  peopleList */\n      0x02\n        /* \"SimpleStorage.sol\":579:608  Person(_favouriteNumber,name) */\n      mload(0x40)\n      dup1\n      0x40\n      add\n      0x40\n      mstore\n      dup1\n        /* \"SimpleStorage.sol\":586:602  _favouriteNumber */\n      dup6\n        /* \"SimpleStorage.sol\":579:608  Person(_favouriteNumber,name) */\n      dup2\n      mstore\n      0x20\n      add\n        /* \"SimpleStorage.sol\":603:607  name */\n      dup5\n      dup5\n        /* \"SimpleStorage.sol\":579:608  Person(_favouriteNumber,name) */\n      dup1\n      dup1\n      0x1f\n      add\n      0x20\n      dup1\n      swap2\n      div\n      mul\n      0x20\n      add\n      mload(0x40)\n      swap1\n      dup2\n      add\n      0x40\n      mstore\n      dup1\n      swap4\n      swap3\n      swap2\n      swap1\n      dup2\n      dup2\n      mstore\n      0x20\n      add\n      dup4\n      dup4\n      dup1\n      dup3\n      dup5\n      calldatacopy\n      0x00\n      dup2\n      dup5\n      add\n      mstore\n      not(0x1f)\n      0x1f\n      dup3\n      add\n      and\n      swap1\n      pop\n      dup1\n      dup4\n      add\n      swap3\n      pop\n      pop\n      pop\n      pop\n      pop\n      pop\n      pop\n      dup2\n      mstore\n      pop\n        /* \"SimpleStorage.sol\":563:609  peopleList.push(Person(_favouriteNumber,name)) */\n      swap1\n      dup1\n      0x01\n      dup2\n      sload\n      add\n      dup1\n      dup3\n      sstore\n      dup1\n      swap2\n      pop\n      pop\n      0x01\n      swap1\n      sub\n      swap1\n      0x00\n      mstore\n      keccak256(0x00, 0x20)\n      swap1\n      0x02\n      mul\n      add\n      0x00\n      swap1\n      swap2\n      swap1\n      swap2\n      swap1\n      swap2\n      pop\n      0x00\n      dup3\n      add\n      mload\n      dup2\n      0x00\n      add\n      sstore\n      0x20\n      dup3\n      add\n      mload\n      dup2\n      0x01\n      add\n      swap1\n      dup2\n      tag_58\n      swap2\n      swap1\n      tag_59\n      jump\t// in\n    tag_58:\n      pop\n      pop\n      pop\n        /* \"SimpleStorage.sol\":639:655  _favouriteNumber */\n      dup3\n        /* \"SimpleStorage.sol\":620:632  nameToNumber */\n      0x03\n        /* \"SimpleStorage.sol\":633:637  name */\n      dup4\n      dup4\n        /* \"SimpleStorage.sol\":620:638  nameToNumber[name] */\n      mload(0x40)\n      tag_60\n      swap3\n      swap2\n      swap1\n      tag_61\n      jump\t// in\n    tag_60:\n      swap1\n      dup2\n      mstore\n      0x20\n      add\n      mload(0x40)\n      dup1\n      swap2\n      sub\n      swap1\n      keccak256\n        /* \"SimpleStorage.sol\":620:655  nameToNumber[name]=_favouriteNumber */\n      dup2\n      swap1\n      sstore\n      pop\n        /* \"SimpleStorage.sol\":475:673  function storePerson(uint256 _favouriteNumber, string calldata name) public  {... */\n      pop\n      pop\n      pop\n      jump\t// out\n        /* \"SimpleStorage.sol\":317:468  function store(uint256 _favouriteNumber) public  {... */\n    tag_32:\n        /* \"SimpleStorage.sol\":393:409  _favouriteNumber */\n      dup1\n        /* \"SimpleStorage.sol\":377:392  favouriteNumber */\n      0x00\n        /* \"SimpleStorage.sol\":377:409  favouriteNumber=_favouriteNumber */\n      dup2\n      swap1\n      sstore\n      pop\n        /* \"SimpleStorage.sol\":420:436  listOfFavNumbers */\n      0x01\n        /* \"SimpleStorage.sol\":442:457  favouriteNumber */\n      sload(0x00)\n        /* \"SimpleStorage.sol\":420:458  listOfFavNumbers.push(favouriteNumber) */\n      swap1\n      dup1\n      0x01\n      dup2\n      sload\n      add\n      dup1\n      dup3\n      sstore\n      dup1\n      swap2\n      pop\n      pop\n      0x01\n      swap1\n      sub\n      swap1\n      0x00\n      mstore\n      keccak256(0x00, 0x20)\n      add\n      0x00\n      swap1\n      swap2\n      swap1\n      swap2\n      swap1\n      swap2\n      pop\n      sstore\n        /* \"SimpleStorage.sol\":317:468  function store(uint256 _favouriteNumber) public  {... */\n      pop\n      jump\t// out\n        /* \"SimpleStorage.sol\":1225:1442  function retreivePersonFromName(string calldata name)public view returns (uint256) {... */\n    tag_36:\n        /* \"SimpleStorage.sol\":1299:1306  uint256 */\n      0x00\n        /* \"SimpleStorage.sol\":1416:1428  nameToNumber */\n      0x03\n        /* \"SimpleStorage.sol\":1429:1433  name */\n      dup4\n      dup4\n        /* \"SimpleStorage.sol\":1416:1434  nameToNumber[name] */\n      mload(0x40)\n      tag_65\n      swap3\n      swap2\n      swap1\n      tag_61\n      jump\t// in\n    tag_65:\n      swap1\n      dup2\n      mstore\n      0x20\n      add\n      mload(0x40)\n      dup1\n      swap2\n      sub\n      swap1\n      keccak256\n      sload\n        /* \"SimpleStorage.sol\":1408:1434  return  nameToNumber[name] */\n      swap1\n      pop\n        /* \"SimpleStorage.sol\":1225:1442  function retreivePersonFromName(string calldata name)public view returns (uint256) {... */\n      swap3\n      swap2\n      pop\n      pop\n      jump\t// out\n        /* \"SimpleStorage.sol\":791:999  function retreiveFavNumberAtIndex(uint256 index)public view returns (uint256) {... */\n    tag_40:\n        /* \"SimpleStorage.sol\":860:867  uint256 */\n      0x00\n        /* \"SimpleStorage.sol\":890:906  listOfFavNumbers */\n      0x01\n        /* \"SimpleStorage.sol\":890:913  listOfFavNumbers.length */\n      dup1\n      sload\n      swap1\n      pop\n        /* \"SimpleStorage.sol\":884:889  index */\n      dup3\n        /* \"SimpleStorage.sol\":884:913  index>listOfFavNumbers.length */\n      gt\n        /* \"SimpleStorage.sol\":880:951  if (index>listOfFavNumbers.length) {... */\n      iszero\n      tag_67\n      jumpi\n        /* \"SimpleStorage.sol\":938:939  0 */\n      0x00\n        /* \"SimpleStorage.sol\":930:939  return  0 */\n      swap1\n      pop\n      jump(tag_66)\n        /* \"SimpleStorage.sol\":880:951  if (index>listOfFavNumbers.length) {... */\n    tag_67:\n        /* \"SimpleStorage.sol\":968:984  listOfFavNumbers */\n      0x01\n        /* \"SimpleStorage.sol\":985:990  index */\n      dup3\n        /* \"SimpleStorage.sol\":968:991  listOfFavNumbers[index] */\n      dup2\n      sload\n      dup2\n      lt\n      tag_68\n      jumpi\n      tag_69\n      tag_48\n      jump\t// in\n    tag_69:\n    tag_68:\n      swap1\n      0x00\n      mstore\n      keccak256(0x00, 0x20)\n      add\n      sload\n        /* \"SimpleStorage.sol\":960:991  return  listOfFavNumbers[index] */\n      swap1\n      pop\n        /* \"SimpleStorage.sol\":791:999  function retreiveFavNumberAtIndex(uint256 index)public view returns (uint256) {... */\n    tag_66:\n      swap2\n      swap1\n      pop\n      jump\t// out\n    tag_44:\n      mload(0x40)\n      dup1\n      0x40\n      add\n      0x40\n      mstore\n      dup1\n      0x00\n      dup2\n      mstore\n      0x20\n      add\n      0x60\n      dup2\n      mstore\n      pop\n      swap1\n      jump\t// out\n        /* \"#utility.yul\":7:82   */\n    tag_71:\n        /* \"#utility.yul\":40:46   */\n      0x00\n        /* \"#utility.yul\":73:75   */\n      0x40\n        /* \"#utility.yul\":67:76   */\n      mload\n        /* \"#utility.yul\":57:76   */\n      swap1\n      pop\n        /* \"#utility.yul\":7:82   */\n      swap1\n      jump\t// out\n        /* \"#utility.yul\":88:205   */\n    tag_72:\n        /* \"#utility.yul\":197:198   */\n      0x00\n        /* \"#utility.yul\":194:195   */\n      dup1\n        /* \"#utility.yul\":187:199   */\n      revert\n        /* \"#utility.yul\":211:328   */\n    tag_73:\n        /* \"#utility.yul\":320:321   */\n      0x00\n        /* \"#utility.yul\":317:318   */\n      dup1\n        /* \"#utility.yul\":310:322   */\n      revert\n        /* \"#utility.yul\":334:451   */\n    tag_74:\n        /* \"#utility.yul\":443:444   */\n      0x00\n        /* \"#utility.yul\":440:441   */\n      dup1\n        /* \"#utility.yul\":433:445   */\n      revert\n        /* \"#utility.yul\":457:574   */\n    tag_75:\n        /* \"#utility.yul\":566:567   */\n      0x00\n        /* \"#utility.yul\":563:564   */\n      dup1\n        /* \"#utility.yul\":556:568   */\n      revert\n        /* \"#utility.yul\":580:682   */\n    tag_76:\n        /* \"#utility.yul\":621:627   */\n      0x00\n        /* \"#utility.yul\":672:674   */\n      0x1f\n        /* \"#utility.yul\":668:675   */\n      not\n        /* \"#utility.yul\":663:665   */\n      0x1f\n        /* \"#utility.yul\":656:661   */\n      dup4\n        /* \"#utility.yul\":652:666   */\n      add\n        /* \"#utility.yul\":648:676   */\n      and\n        /* \"#utility.yul\":638:676   */\n      swap1\n      pop\n        /* \"#utility.yul\":580:682   */\n      swap2\n      swap1\n      pop\n      jump\t// out\n        /* \"#utility.yul\":688:868   */\n    tag_77:\n        /* \"#utility.yul\":736:813   */\n      0x4e487b7100000000000000000000000000000000000000000000000000000000\n        /* \"#utility.yul\":733:734   */\n      0x00\n        /* \"#utility.yul\":726:814   */\n      mstore\n        /* \"#utility.yul\":833:837   */\n      0x41\n        /* \"#utility.yul\":830:831   */\n      0x04\n        /* \"#utility.yul\":823:838   */\n      mstore\n        /* \"#utility.yul\":857:861   */\n      0x24\n        /* \"#utility.yul\":854:855   */\n      0x00\n        /* \"#utility.yul\":847:862   */\n      revert\n        /* \"#utility.yul\":874:1155   */\n    tag_78:\n        /* \"#utility.yul\":957:984   */\n      tag_124\n        /* \"#utility.yul\":979:983   */\n      dup3\n        /* \"#utility.yul\":957:984   */\n      tag_76\n      jump\t// in\n    tag_124:\n        /* \"#utility.yul\":949:955   */\n      dup2\n        /* \"#utility.yul\":945:985   */\n      add\n        /* \"#utility.yul\":1087:1093   */\n      dup2\n        /* \"#utility.yul\":1075:1085   */\n      dup2\n        /* \"#utility.yul\":1072:1094   */\n      lt\n        /* \"#utility.yul\":1051:1069   */\n      0xffffffffffffffff\n        /* \"#utility.yul\":1039:1049   */\n      dup3\n        /* \"#utility.yul\":1036:1070   */\n      gt\n        /* \"#utility.yul\":1033:1095   */\n      or\n        /* \"#utility.yul\":1030:1118   */\n      iszero\n      tag_125\n      jumpi\n        /* \"#utility.yul\":1098:1116   */\n      tag_126\n      tag_77\n      jump\t// in\n    tag_126:\n        /* \"#utility.yul\":1030:1118   */\n    tag_125:\n        /* \"#utility.yul\":1138:1148   */\n      dup1\n        /* \"#utility.yul\":1134:1136   */\n      0x40\n        /* \"#utility.yul\":1127:1149   */\n      mstore\n        /* \"#utility.yul\":917:1155   */\n      pop\n        /* \"#utility.yul\":874:1155   */\n      pop\n      pop\n      jump\t// out\n        /* \"#utility.yul\":1161:1290   */\n    tag_79:\n        /* \"#utility.yul\":1195:1201   */\n      0x00\n        /* \"#utility.yul\":1222:1242   */\n      tag_128\n      tag_71\n      jump\t// in\n    tag_128:\n        /* \"#utility.yul\":1212:1242   */\n      swap1\n      pop\n        /* \"#utility.yul\":1251:1284   */\n      tag_129\n        /* \"#utility.yul\":1279:1283   */\n      dup3\n        /* \"#utility.yul\":1271:1277   */\n      dup3\n        /* \"#utility.yul\":1251:1284   */\n      tag_78\n      jump\t// in\n    tag_129:\n        /* \"#utility.yul\":1161:1290   */\n      swap2\n      swap1\n      pop\n      jump\t// out\n        /* \"#utility.yul\":1296:1604   */\n    tag_80:\n        /* \"#utility.yul\":1358:1362   */\n      0x00\n        /* \"#utility.yul\":1448:1466   */\n      0xffffffffffffffff\n        /* \"#utility.yul\":1440:1446   */\n      dup3\n        /* \"#utility.yul\":1437:1467   */\n      gt\n        /* \"#utility.yul\":1434:1490   */\n      iszero\n      tag_131\n      jumpi\n        /* \"#utility.yul\":1470:1488   */\n      tag_132\n      tag_77\n      jump\t// in\n    tag_132:\n        /* \"#utility.yul\":1434:1490   */\n    tag_131:\n        /* \"#utility.yul\":1508:1537   */\n      tag_133\n        /* \"#utility.yul\":1530:1536   */\n      dup3\n        /* \"#utility.yul\":1508:1537   */\n      tag_76\n      jump\t// in\n    tag_133:\n        /* \"#utility.yul\":1500:1537   */\n      swap1\n      pop\n        /* \"#utility.yul\":1592:1596   */\n      0x20\n        /* \"#utility.yul\":1586:1590   */\n      dup2\n        /* \"#utility.yul\":1582:1597   */\n      add\n        /* \"#utility.yul\":1574:1597   */\n      swap1\n      pop\n        /* \"#utility.yul\":1296:1604   */\n      swap2\n      swap1\n      pop\n      jump\t// out\n        /* \"#utility.yul\":1610:1758   */\n    tag_81:\n        /* \"#utility.yul\":1708:1714   */\n      dup3\n        /* \"#utility.yul\":1703:1706   */\n      dup2\n        /* \"#utility.yul\":1698:1701   */\n      dup4\n        /* \"#utility.yul\":1685:1715   */\n      calldatacopy\n        /* \"#utility.yul\":1749:1750   */\n      0x00\n        /* \"#utility.yul\":1740:1746   */\n      dup4\n        /* \"#utility.yul\":1735:1738   */\n      dup4\n        /* \"#utility.yul\":1731:1747   */\n      add\n        /* \"#utility.yul\":1724:1751   */\n      mstore\n        /* \"#utility.yul\":1610:1758   */\n      pop\n      pop\n      pop\n      jump\t// out\n        /* \"#utility.yul\":1764:2189   */\n    tag_82:\n        /* \"#utility.yul\":1842:1847   */\n      0x00\n        /* \"#utility.yul\":1867:1933   */\n      tag_136\n        /* \"#utility.yul\":1883:1932   */\n      tag_137\n        /* \"#utility.yul\":1925:1931   */\n      dup5\n        /* \"#utility.yul\":1883:1932   */\n      tag_80\n      jump\t// in\n    tag_137:\n        /* \"#utility.yul\":1867:1933   */\n      tag_79\n      jump\t// in\n    tag_136:\n        /* \"#utility.yul\":1858:1933   */\n      swap1\n      pop\n        /* \"#utility.yul\":1956:1962   */\n      dup3\n        /* \"#utility.yul\":1949:1954   */\n      dup2\n        /* \"#utility.yul\":1942:1963   */\n      mstore\n        /* \"#utility.yul\":1994:1998   */\n      0x20\n        /* \"#utility.yul\":1987:1992   */\n      dup2\n        /* \"#utility.yul\":1983:1999   */\n      add\n        /* \"#utility.yul\":2032:2035   */\n      dup5\n        /* \"#utility.yul\":2023:2029   */\n      dup5\n        /* \"#utility.yul\":2018:2021   */\n      dup5\n        /* \"#utility.yul\":2014:2030   */\n      add\n        /* \"#utility.yul\":2011:2036   */\n      gt\n        /* \"#utility.yul\":2008:2120   */\n      iszero\n      tag_138\n      jumpi\n        /* \"#utility.yul\":2039:2118   */\n      tag_139\n      tag_75\n      jump\t// in\n    tag_139:\n        /* \"#utility.yul\":2008:2120   */\n    tag_138:\n        /* \"#utility.yul\":2129:2183   */\n      tag_140\n        /* \"#utility.yul\":2176:2182   */\n      dup5\n        /* \"#utility.yul\":2171:2174   */\n      dup3\n        /* \"#utility.yul\":2166:2169   */\n      dup6\n        /* \"#utility.yul\":2129:2183   */\n      tag_81\n      jump\t// in\n    tag_140:\n        /* \"#utility.yul\":1848:2189   */\n      pop\n        /* \"#utility.yul\":1764:2189   */\n      swap4\n      swap3\n      pop\n      pop\n      pop\n      jump\t// out\n        /* \"#utility.yul\":2209:2549   */\n    tag_83:\n        /* \"#utility.yul\":2265:2270   */\n      0x00\n        /* \"#utility.yul\":2314:2317   */\n      dup3\n        /* \"#utility.yul\":2307:2311   */\n      0x1f\n        /* \"#utility.yul\":2299:2305   */\n      dup4\n        /* \"#utility.yul\":2295:2312   */\n      add\n        /* \"#utility.yul\":2291:2318   */\n      slt\n        /* \"#utility.yul\":2281:2403   */\n      tag_142\n      jumpi\n        /* \"#utility.yul\":2322:2401   */\n      tag_143\n      tag_74\n      jump\t// in\n    tag_143:\n        /* \"#utility.yul\":2281:2403   */\n    tag_142:\n        /* \"#utility.yul\":2439:2445   */\n      dup2\n        /* \"#utility.yul\":2426:2446   */\n      calldataload\n        /* \"#utility.yul\":2464:2543   */\n      tag_144\n        /* \"#utility.yul\":2539:2542   */\n      dup5\n        /* \"#utility.yul\":2531:2537   */\n      dup3\n        /* \"#utility.yul\":2524:2528   */\n      0x20\n        /* \"#utility.yul\":2516:2522   */\n      dup7\n        /* \"#utility.yul\":2512:2529   */\n      add\n        /* \"#utility.yul\":2464:2543   */\n      tag_82\n      jump\t// in\n    tag_144:\n        /* \"#utility.yul\":2455:2543   */\n      swap2\n      pop\n        /* \"#utility.yul\":2271:2549   */\n      pop\n        /* \"#utility.yul\":2209:2549   */\n      swap3\n      swap2\n      pop\n      pop\n      jump\t// out\n        /* \"#utility.yul\":2555:3064   */\n    tag_13:\n        /* \"#utility.yul\":2624:2630   */\n      0x00\n        /* \"#utility.yul\":2673:2675   */\n      0x20\n        /* \"#utility.yul\":2661:2670   */\n      dup3\n        /* \"#utility.yul\":2652:2659   */\n      dup5\n        /* \"#utility.yul\":2648:2671   */\n      sub\n        /* \"#utility.yul\":2644:2676   */\n      slt\n        /* \"#utility.yul\":2641:2760   */\n      iszero\n      tag_146\n      jumpi\n        /* \"#utility.yul\":2679:2758   */\n      tag_147\n      tag_72\n      jump\t// in\n    tag_147:\n        /* \"#utility.yul\":2641:2760   */\n    tag_146:\n        /* \"#utility.yul\":2827:2828   */\n      0x00\n        /* \"#utility.yul\":2816:2825   */\n      dup3\n        /* \"#utility.yul\":2812:2829   */\n      add\n        /* \"#utility.yul\":2799:2830   */\n      calldataload\n        /* \"#utility.yul\":2857:2875   */\n      0xffffffffffffffff\n        /* \"#utility.yul\":2849:2855   */\n      dup2\n        /* \"#utility.yul\":2846:2876   */\n      gt\n        /* \"#utility.yul\":2843:2960   */\n      iszero\n      tag_148\n      jumpi\n        /* \"#utility.yul\":2879:2958   */\n      tag_149\n      tag_73\n      jump\t// in\n    tag_149:\n        /* \"#utility.yul\":2843:2960   */\n    tag_148:\n        /* \"#utility.yul\":2984:3047   */\n      tag_150\n        /* \"#utility.yul\":3039:3046   */\n      dup5\n        /* \"#utility.yul\":3030:3036   */\n      dup3\n        /* \"#utility.yul\":3019:3028   */\n      dup6\n        /* \"#utility.yul\":3015:3037   */\n      add\n        /* \"#utility.yul\":2984:3047   */\n      tag_83\n      jump\t// in\n    tag_150:\n        /* \"#utility.yul\":2974:3047   */\n      swap2\n      pop\n        /* \"#utility.yul\":2770:3057   */\n      pop\n        /* \"#utility.yul\":2555:3064   */\n      swap3\n      swap2\n      pop\n      pop\n      jump\t// out\n        /* \"#utility.yul\":3070:3147   */\n    tag_84:\n        /* \"#utility.yul\":3107:3114   */\n      0x00\n        /* \"#utility.yul\":3136:3141   */\n      dup2\n        /* \"#utility.yul\":3125:3141   */\n      swap1\n      pop\n        /* \"#utility.yul\":3070:3147   */\n      swap2\n      swap1\n      pop\n      jump\t// out\n        /* \"#utility.yul\":3153:3271   */\n    tag_85:\n        /* \"#utility.yul\":3240:3264   */\n      tag_153\n        /* \"#utility.yul\":3258:3263   */\n      dup2\n        /* \"#utility.yul\":3240:3264   */\n      tag_84\n      jump\t// in\n    tag_153:\n        /* \"#utility.yul\":3235:3238   */\n      dup3\n        /* \"#utility.yul\":3228:3265   */\n      mstore\n        /* \"#utility.yul\":3153:3271   */\n      pop\n      pop\n      jump\t// out\n        /* \"#utility.yul\":3277:3499   */\n    tag_16:\n        /* \"#utility.yul\":3370:3374   */\n      0x00\n        /* \"#utility.yul\":3408:3410   */\n      0x20\n        /* \"#utility.yul\":3397:3406   */\n      dup3\n        /* \"#utility.yul\":3393:3411   */\n      add\n        /* \"#utility.yul\":3385:3411   */\n      swap1\n      pop\n        /* \"#utility.yul\":3421:3492   */\n      tag_155\n        /* \"#utility.yul\":3489:3490   */\n      0x00\n        /* \"#utility.yul\":3478:3487   */\n      dup4\n        /* \"#utility.yul\":3474:3491   */\n      add\n        /* \"#utility.yul\":3465:3471   */\n      dup5\n        /* \"#utility.yul\":3421:3492   */\n      tag_85\n      jump\t// in\n    tag_155:\n        /* \"#utility.yul\":3277:3499   */\n      swap3\n      swap2\n      pop\n      pop\n      jump\t// out\n        /* \"#utility.yul\":3505:3627   */\n    tag_86:\n        /* \"#utility.yul\":3578:3602   */\n      tag_157\n        /* \"#utility.yul\":3596:3601   */\n      dup2\n        /* \"#utility.yul\":3578:3602   */\n      tag_84\n      jump\t// in\n    tag_157:\n        /* \"#utility.yul\":3571:3576   */\n      dup2\n        /* \"#utility.yul\":3568:3603   */\n      eq\n        /* \"#utility.yul\":3558:3621   */\n      tag_158\n      jumpi\n        /* \"#utility.yul\":3617:3618   */\n      0x00\n        /* \"#utility.yul\":3614:3615   */\n      dup1\n        /* \"#utility.yul\":3607:3619   */\n      revert\n        /* \"#utility.yul\":3558:3621   */\n    tag_158:\n        /* \"#utility.yul\":3505:3627   */\n      pop\n      jump\t// out\n        /* \"#utility.yul\":3633:3772   */\n    tag_87:\n        /* \"#utility.yul\":3679:3684   */\n      0x00\n        /* \"#utility.yul\":3717:3723   */\n      dup2\n        /* \"#utility.yul\":3704:3724   */\n      calldataload\n        /* \"#utility.yul\":3695:3724   */\n      swap1\n      pop\n        /* \"#utility.yul\":3733:3766   */\n      tag_160\n        /* \"#utility.yul\":3760:3765   */\n      dup2\n        /* \"#utility.yul\":3733:3766   */\n      tag_86\n      jump\t// in\n    tag_160:\n        /* \"#utility.yul\":3633:3772   */\n      swap3\n      swap2\n      pop\n      pop\n      jump\t// out\n        /* \"#utility.yul\":3778:4107   */\n    tag_22:\n        /* \"#utility.yul\":3837:3843   */\n      0x00\n        /* \"#utility.yul\":3886:3888   */\n      0x20\n        /* \"#utility.yul\":3874:3883   */\n      dup3\n        /* \"#utility.yul\":3865:3872   */\n      dup5\n        /* \"#utility.yul\":3861:3884   */\n      sub\n        /* \"#utility.yul\":3857:3889   */\n      slt\n        /* \"#utility.yul\":3854:3973   */\n      iszero\n      tag_162\n      jumpi\n        /* \"#utility.yul\":3892:3971   */\n      tag_163\n      tag_72\n      jump\t// in\n    tag_163:\n        /* \"#utility.yul\":3854:3973   */\n    tag_162:\n        /* \"#utility.yul\":4012:4013   */\n      0x00\n        /* \"#utility.yul\":4037:4090   */\n      tag_164\n        /* \"#utility.yul\":4082:4089   */\n      dup5\n        /* \"#utility.yul\":4073:4079   */\n      dup3\n        /* \"#utility.yul\":4062:4071   */\n      dup6\n        /* \"#utility.yul\":4058:4080   */\n      add\n        /* \"#utility.yul\":4037:4090   */\n      tag_87\n      jump\t// in\n    tag_164:\n        /* \"#utility.yul\":4027:4090   */\n      swap2\n      pop\n        /* \"#utility.yul\":3983:4100   */\n      pop\n        /* \"#utility.yul\":3778:4107   */\n      swap3\n      swap2\n      pop\n      pop\n      jump\t// out\n        /* \"#utility.yul\":4113:4221   */\n    tag_88:\n        /* \"#utility.yul\":4190:4214   */\n      tag_166\n        /* \"#utility.yul\":4208:4213   */\n      dup2\n        /* \"#utility.yul\":4190:4214   */\n      tag_84\n      jump\t// in\n    tag_166:\n        /* \"#utility.yul\":4185:4188   */\n      dup3\n        /* \"#utility.yul\":4178:4215   */\n      mstore\n        /* \"#utility.yul\":4113:4221   */\n      pop\n      pop\n      jump\t// out\n        /* \"#utility.yul\":4227:4326   */\n    tag_89:\n        /* \"#utility.yul\":4279:4285   */\n      0x00\n        /* \"#utility.yul\":4313:4318   */\n      dup2\n        /* \"#utility.yul\":4307:4319   */\n      mload\n        /* \"#utility.yul\":4297:4319   */\n      swap1\n      pop\n        /* \"#utility.yul\":4227:4326   */\n      swap2\n      swap1\n      pop\n      jump\t// out\n        /* \"#utility.yul\":4332:4491   */\n    tag_90:\n        /* \"#utility.yul\":4406:4417   */\n      0x00\n        /* \"#utility.yul\":4440:4446   */\n      dup3\n        /* \"#utility.yul\":4435:4438   */\n      dup3\n        /* \"#utility.yul\":4428:4447   */\n      mstore\n        /* \"#utility.yul\":4480:4484   */\n      0x20\n        /* \"#utility.yul\":4475:4478   */\n      dup3\n        /* \"#utility.yul\":4471:4485   */\n      add\n        /* \"#utility.yul\":4456:4485   */\n      swap1\n      pop\n        /* \"#utility.yul\":4332:4491   */\n      swap3\n      swap2\n      pop\n      pop\n      jump\t// out\n        /* \"#utility.yul\":4497:4636   */\n    tag_91:\n        /* \"#utility.yul\":4586:4592   */\n      dup3\n        /* \"#utility.yul\":4581:4584   */\n      dup2\n        /* \"#utility.yul\":4576:4579   */\n      dup4\n        /* \"#utility.yul\":4570:4593   */\n      mcopy\n        /* \"#utility.yul\":4627:4628   */\n      0x00\n        /* \"#utility.yul\":4618:4624   */\n      dup4\n        /* \"#utility.yul\":4613:4616   */\n      dup4\n        /* \"#utility.yul\":4609:4625   */\n      add\n        /* \"#utility.yul\":4602:4629   */\n      mstore\n        /* \"#utility.yul\":4497:4636   */\n      pop\n      pop\n      pop\n      jump\t// out\n        /* \"#utility.yul\":4642:4999   */\n    tag_92:\n        /* \"#utility.yul\":4720:4723   */\n      0x00\n        /* \"#utility.yul\":4748:4787   */\n      tag_171\n        /* \"#utility.yul\":4781:4786   */\n      dup3\n        /* \"#utility.yul\":4748:4787   */\n      tag_89\n      jump\t// in\n    tag_171:\n        /* \"#utility.yul\":4803:4864   */\n      tag_172\n        /* \"#utility.yul\":4857:4863   */\n      dup2\n        /* \"#utility.yul\":4852:4855   */\n      dup6\n        /* \"#utility.yul\":4803:4864   */\n      tag_90\n      jump\t// in\n    tag_172:\n        /* \"#utility.yul\":4796:4864   */\n      swap4\n      pop\n        /* \"#utility.yul\":4873:4938   */\n      tag_173\n        /* \"#utility.yul\":4931:4937   */\n      dup2\n        /* \"#utility.yul\":4926:4929   */\n      dup6\n        /* \"#utility.yul\":4919:4923   */\n      0x20\n        /* \"#utility.yul\":4912:4917   */\n      dup7\n        /* \"#utility.yul\":4908:4924   */\n      add\n        /* \"#utility.yul\":4873:4938   */\n      tag_91\n      jump\t// in\n    tag_173:\n        /* \"#utility.yul\":4963:4992   */\n      tag_174\n        /* \"#utility.yul\":4985:4991   */\n      dup2\n        /* \"#utility.yul\":4963:4992   */\n      tag_76\n      jump\t// in\n    tag_174:\n        /* \"#utility.yul\":4958:4961   */\n      dup5\n        /* \"#utility.yul\":4954:4993   */\n      add\n        /* \"#utility.yul\":4947:4993   */\n      swap2\n      pop\n        /* \"#utility.yul\":4724:4999   */\n      pop\n        /* \"#utility.yul\":4642:4999   */\n      swap3\n      swap2\n      pop\n      pop\n      jump\t// out\n        /* \"#utility.yul\":5071:5673   */\n    tag_93:\n        /* \"#utility.yul\":5184:5187   */\n      0x00\n        /* \"#utility.yul\":5220:5224   */\n      0x40\n        /* \"#utility.yul\":5215:5218   */\n      dup4\n        /* \"#utility.yul\":5211:5225   */\n      add\n        /* \"#utility.yul\":5309:5313   */\n      0x00\n        /* \"#utility.yul\":5302:5307   */\n      dup4\n        /* \"#utility.yul\":5298:5314   */\n      add\n        /* \"#utility.yul\":5292:5315   */\n      mload\n        /* \"#utility.yul\":5328:5391   */\n      tag_176\n        /* \"#utility.yul\":5385:5389   */\n      0x00\n        /* \"#utility.yul\":5380:5383   */\n      dup7\n        /* \"#utility.yul\":5376:5390   */\n      add\n        /* \"#utility.yul\":5362:5374   */\n      dup3\n        /* \"#utility.yul\":5328:5391   */\n      tag_88\n      jump\t// in\n    tag_176:\n        /* \"#utility.yul\":5235:5401   */\n      pop\n        /* \"#utility.yul\":5483:5487   */\n      0x20\n        /* \"#utility.yul\":5476:5481   */\n      dup4\n        /* \"#utility.yul\":5472:5488   */\n      add\n        /* \"#utility.yul\":5466:5489   */\n      mload\n        /* \"#utility.yul\":5536:5539   */\n      dup5\n        /* \"#utility.yul\":5530:5534   */\n      dup3\n        /* \"#utility.yul\":5526:5540   */\n      sub\n        /* \"#utility.yul\":5519:5523   */\n      0x20\n        /* \"#utility.yul\":5514:5517   */\n      dup7\n        /* \"#utility.yul\":5510:5524   */\n      add\n        /* \"#utility.yul\":5503:5541   */\n      mstore\n        /* \"#utility.yul\":5562:5635   */\n      tag_177\n        /* \"#utility.yul\":5630:5634   */\n      dup3\n        /* \"#utility.yul\":5616:5628   */\n      dup3\n        /* \"#utility.yul\":5562:5635   */\n      tag_92\n      jump\t// in\n    tag_177:\n        /* \"#utility.yul\":5554:5635   */\n      swap2\n      pop\n        /* \"#utility.yul\":5411:5646   */\n      pop\n        /* \"#utility.yul\":5663:5667   */\n      dup1\n        /* \"#utility.yul\":5656:5667   */\n      swap2\n      pop\n        /* \"#utility.yul\":5189:5673   */\n      pop\n        /* \"#utility.yul\":5071:5673   */\n      swap3\n      swap2\n      pop\n      pop\n      jump\t// out\n        /* \"#utility.yul\":5679:6040   */\n    tag_25:\n        /* \"#utility.yul\":5816:5820   */\n      0x00\n        /* \"#utility.yul\":5854:5856   */\n      0x20\n        /* \"#utility.yul\":5843:5852   */\n      dup3\n        /* \"#utility.yul\":5839:5857   */\n      add\n        /* \"#utility.yul\":5831:5857   */\n      swap1\n      pop\n        /* \"#utility.yul\":5903:5912   */\n      dup2\n        /* \"#utility.yul\":5897:5901   */\n      dup2\n        /* \"#utility.yul\":5893:5913   */\n      sub\n        /* \"#utility.yul\":5889:5890   */\n      0x00\n        /* \"#utility.yul\":5878:5887   */\n      dup4\n        /* \"#utility.yul\":5874:5891   */\n      add\n        /* \"#utility.yul\":5867:5914   */\n      mstore\n        /* \"#utility.yul\":5931:6033   */\n      tag_179\n        /* \"#utility.yul\":6028:6032   */\n      dup2\n        /* \"#utility.yul\":6019:6025   */\n      dup5\n        /* \"#utility.yul\":5931:6033   */\n      tag_93\n      jump\t// in\n    tag_179:\n        /* \"#utility.yul\":5923:6033   */\n      swap1\n      pop\n        /* \"#utility.yul\":5679:6040   */\n      swap3\n      swap2\n      pop\n      pop\n      jump\t// out\n        /* \"#utility.yul\":6046:6163   */\n    tag_94:\n        /* \"#utility.yul\":6155:6156   */\n      0x00\n        /* \"#utility.yul\":6152:6153   */\n      dup1\n        /* \"#utility.yul\":6145:6157   */\n      revert\n        /* \"#utility.yul\":6169:6286   */\n    tag_95:\n        /* \"#utility.yul\":6278:6279   */\n      0x00\n        /* \"#utility.yul\":6275:6276   */\n      dup1\n        /* \"#utility.yul\":6268:6280   */\n      revert\n        /* \"#utility.yul\":6306:6859   */\n    tag_96:\n        /* \"#utility.yul\":6364:6372   */\n      0x00\n        /* \"#utility.yul\":6374:6380   */\n      dup1\n        /* \"#utility.yul\":6424:6427   */\n      dup4\n        /* \"#utility.yul\":6417:6421   */\n      0x1f\n        /* \"#utility.yul\":6409:6415   */\n      dup5\n        /* \"#utility.yul\":6405:6422   */\n      add\n        /* \"#utility.yul\":6401:6428   */\n      slt\n        /* \"#utility.yul\":6391:6513   */\n      tag_183\n      jumpi\n        /* \"#utility.yul\":6432:6511   */\n      tag_184\n      tag_74\n      jump\t// in\n    tag_184:\n        /* \"#utility.yul\":6391:6513   */\n    tag_183:\n        /* \"#utility.yul\":6545:6551   */\n      dup3\n        /* \"#utility.yul\":6532:6552   */\n      calldataload\n        /* \"#utility.yul\":6522:6552   */\n      swap1\n      pop\n        /* \"#utility.yul\":6575:6593   */\n      0xffffffffffffffff\n        /* \"#utility.yul\":6567:6573   */\n      dup2\n        /* \"#utility.yul\":6564:6594   */\n      gt\n        /* \"#utility.yul\":6561:6678   */\n      iszero\n      tag_185\n      jumpi\n        /* \"#utility.yul\":6597:6676   */\n      tag_186\n      tag_94\n      jump\t// in\n    tag_186:\n        /* \"#utility.yul\":6561:6678   */\n    tag_185:\n        /* \"#utility.yul\":6711:6715   */\n      0x20\n        /* \"#utility.yul\":6703:6709   */\n      dup4\n        /* \"#utility.yul\":6699:6716   */\n      add\n        /* \"#utility.yul\":6687:6716   */\n      swap2\n      pop\n        /* \"#utility.yul\":6765:6768   */\n      dup4\n        /* \"#utility.yul\":6757:6761   */\n      0x01\n        /* \"#utility.yul\":6749:6755   */\n      dup3\n        /* \"#utility.yul\":6745:6762   */\n      mul\n        /* \"#utility.yul\":6735:6743   */\n      dup4\n        /* \"#utility.yul\":6731:6763   */\n      add\n        /* \"#utility.yul\":6728:6769   */\n      gt\n        /* \"#utility.yul\":6725:6853   */\n      iszero\n      tag_187\n      jumpi\n        /* \"#utility.yul\":6772:6851   */\n      tag_188\n      tag_95\n      jump\t// in\n    tag_188:\n        /* \"#utility.yul\":6725:6853   */\n    tag_187:\n        /* \"#utility.yul\":6306:6859   */\n      swap3\n      pop\n      swap3\n      swap1\n      pop\n      jump\t// out\n        /* \"#utility.yul\":6865:7539   */\n    tag_28:\n        /* \"#utility.yul\":6945:6951   */\n      0x00\n        /* \"#utility.yul\":6953:6959   */\n      dup1\n        /* \"#utility.yul\":6961:6967   */\n      0x00\n        /* \"#utility.yul\":7010:7012   */\n      0x40\n        /* \"#utility.yul\":6998:7007   */\n      dup5\n        /* \"#utility.yul\":6989:6996   */\n      dup7\n        /* \"#utility.yul\":6985:7008   */\n      sub\n        /* \"#utility.yul\":6981:7013   */\n      slt\n        /* \"#utility.yul\":6978:7097   */\n      iszero\n      tag_190\n      jumpi\n        /* \"#utility.yul\":7016:7095   */\n      tag_191\n      tag_72\n      jump\t// in\n    tag_191:\n        /* \"#utility.yul\":6978:7097   */\n    tag_190:\n        /* \"#utility.yul\":7136:7137   */\n      0x00\n        /* \"#utility.yul\":7161:7214   */\n      tag_192\n        /* \"#utility.yul\":7206:7213   */\n      dup7\n        /* \"#utility.yul\":7197:7203   */\n      dup3\n        /* \"#utility.yul\":7186:7195   */\n      dup8\n        /* \"#utility.yul\":7182:7204   */\n      add\n        /* \"#utility.yul\":7161:7214   */\n      tag_87\n      jump\t// in\n    tag_192:\n        /* \"#utility.yul\":7151:7214   */\n      swap4\n      pop\n        /* \"#utility.yul\":7107:7224   */\n      pop\n        /* \"#utility.yul\":7291:7293   */\n      0x20\n        /* \"#utility.yul\":7280:7289   */\n      dup5\n        /* \"#utility.yul\":7276:7294   */\n      add\n        /* \"#utility.yul\":7263:7295   */\n      calldataload\n        /* \"#utility.yul\":7322:7340   */\n      0xffffffffffffffff\n        /* \"#utility.yul\":7314:7320   */\n      dup2\n        /* \"#utility.yul\":7311:7341   */\n      gt\n        /* \"#utility.yul\":7308:7425   */\n      iszero\n      tag_193\n      jumpi\n        /* \"#utility.yul\":7344:7423   */\n      tag_194\n      tag_73\n      jump\t// in\n    tag_194:\n        /* \"#utility.yul\":7308:7425   */\n    tag_193:\n        /* \"#utility.yul\":7457:7522   */\n      tag_195\n        /* \"#utility.yul\":7514:7521   */\n      dup7\n        /* \"#utility.yul\":7505:7511   */\n      dup3\n        /* \"#utility.yul\":7494:7503   */\n      dup8\n        /* \"#utility.yul\":7490:7512   */\n      add\n        /* \"#utility.yul\":7457:7522   */\n      tag_96\n      jump\t// in\n    tag_195:\n        /* \"#utility.yul\":7439:7522   */\n      swap3\n      pop\n      swap3\n      pop\n        /* \"#utility.yul\":7234:7532   */\n      pop\n        /* \"#utility.yul\":6865:7539   */\n      swap3\n      pop\n      swap3\n      pop\n      swap3\n      jump\t// out\n        /* \"#utility.yul\":7545:8074   */\n    tag_35:\n        /* \"#utility.yul\":7616:7622   */\n      0x00\n        /* \"#utility.yul\":7624:7630   */\n      dup1\n        /* \"#utility.yul\":7673:7675   */\n      0x20\n        /* \"#utility.yul\":7661:7670   */\n      dup4\n        /* \"#utility.yul\":7652:7659   */\n      dup6\n        /* \"#utility.yul\":7648:7671   */\n      sub\n        /* \"#utility.yul\":7644:7676   */\n      slt\n        /* \"#utility.yul\":7641:7760   */\n      iszero\n      tag_197\n      jumpi\n        /* \"#utility.yul\":7679:7758   */\n      tag_198\n      tag_72\n      jump\t// in\n    tag_198:\n        /* \"#utility.yul\":7641:7760   */\n    tag_197:\n        /* \"#utility.yul\":7827:7828   */\n      0x00\n        /* \"#utility.yul\":7816:7825   */\n      dup4\n        /* \"#utility.yul\":7812:7829   */\n      add\n        /* \"#utility.yul\":7799:7830   */\n      calldataload\n        /* \"#utility.yul\":7857:7875   */\n      0xffffffffffffffff\n        /* \"#utility.yul\":7849:7855   */\n      dup2\n        /* \"#utility.yul\":7846:7876   */\n      gt\n        /* \"#utility.yul\":7843:7960   */\n      iszero\n      tag_199\n      jumpi\n        /* \"#utility.yul\":7879:7958   */\n      tag_200\n      tag_73\n      jump\t// in\n    tag_200:\n        /* \"#utility.yul\":7843:7960   */\n    tag_199:\n        /* \"#utility.yul\":7992:8057   */\n      tag_201\n        /* \"#utility.yul\":8049:8056   */\n      dup6\n        /* \"#utility.yul\":8040:8046   */\n      dup3\n        /* \"#utility.yul\":8029:8038   */\n      dup7\n        /* \"#utility.yul\":8025:8047   */\n      add\n        /* \"#utility.yul\":7992:8057   */\n      tag_96\n      jump\t// in\n    tag_201:\n        /* \"#utility.yul\":7974:8057   */\n      swap3\n      pop\n      swap3\n      pop\n        /* \"#utility.yul\":7770:8067   */\n      pop\n        /* \"#utility.yul\":7545:8074   */\n      swap3\n      pop\n      swap3\n      swap1\n      pop\n      jump\t// out\n        /* \"#utility.yul\":8080:8260   */\n    tag_48:\n        /* \"#utility.yul\":8128:8205   */\n      0x4e487b7100000000000000000000000000000000000000000000000000000000\n        /* \"#utility.yul\":8125:8126   */\n      0x00\n        /* \"#utility.yul\":8118:8206   */\n      mstore\n        /* \"#utility.yul\":8225:8229   */\n      0x32\n        /* \"#utility.yul\":8222:8223   */\n      0x04\n        /* \"#utility.yul\":8215:8230   */\n      mstore\n        /* \"#utility.yul\":8249:8253   */\n      0x24\n        /* \"#utility.yul\":8246:8247   */\n      0x00\n        /* \"#utility.yul\":8239:8254   */\n      revert\n        /* \"#utility.yul\":8266:8446   */\n    tag_97:\n        /* \"#utility.yul\":8314:8391   */\n      0x4e487b7100000000000000000000000000000000000000000000000000000000\n        /* \"#utility.yul\":8311:8312   */\n      0x00\n        /* \"#utility.yul\":8304:8392   */\n      mstore\n        /* \"#utility.yul\":8411:8415   */\n      0x22\n        /* \"#utility.yul\":8408:8409   */\n      0x04\n        /* \"#utility.yul\":8401:8416   */\n      mstore\n        /* \"#utility.yul\":8435:8439   */\n      0x24\n        /* \"#utility.yul\":8432:8433   */\n      0x00\n        /* \"#utility.yul\":8425:8440   */\n      revert\n        /* \"#utility.yul\":8452:8772   */\n    tag_51:\n        /* \"#utility.yul\":8496:8502   */\n      0x00\n        /* \"#utility.yul\":8533:8534   */\n      0x02\n        /* \"#utility.yul\":8527:8531   */\n      dup3\n        /* \"#utility.yul\":8523:8535   */\n      div\n        /* \"#utility.yul\":8513:8535   */\n      swap1\n      pop\n        /* \"#utility.yul\":8580:8581   */\n      0x01\n        /* \"#utility.yul\":8574:8578   */\n      dup3\n        /* \"#utility.yul\":8570:8582   */\n      and\n        /* \"#utility.yul\":8601:8619   */\n      dup1\n        /* \"#utility.yul\":8591:8672   */\n      tag_205\n      jumpi\n        /* \"#utility.yul\":8657:8661   */\n      0x7f\n        /* \"#utility.yul\":8649:8655   */\n      dup3\n        /* \"#utility.yul\":8645:8662   */\n      and\n        /* \"#utility.yul\":8635:8662   */\n      swap2\n      pop\n        /* \"#utility.yul\":8591:8672   */\n    tag_205:\n        /* \"#utility.yul\":8719:8721   */\n      0x20\n        /* \"#utility.yul\":8711:8717   */\n      dup3\n        /* \"#utility.yul\":8708:8722   */\n      lt\n        /* \"#utility.yul\":8688:8706   */\n      dup2\n        /* \"#utility.yul\":8685:8723   */\n      sub\n        /* \"#utility.yul\":8682:8766   */\n      tag_206\n      jumpi\n        /* \"#utility.yul\":8738:8756   */\n      tag_207\n      tag_97\n      jump\t// in\n    tag_207:\n        /* \"#utility.yul\":8682:8766   */\n    tag_206:\n        /* \"#utility.yul\":8503:8772   */\n      pop\n        /* \"#utility.yul\":8452:8772   */\n      swap2\n      swap1\n      pop\n      jump\t// out\n        /* \"#utility.yul\":8778:8919   */\n    tag_98:\n        /* \"#utility.yul\":8827:8831   */\n      0x00\n        /* \"#utility.yul\":8850:8853   */\n      dup2\n        /* \"#utility.yul\":8842:8853   */\n      swap1\n      pop\n        /* \"#utility.yul\":8873:8876   */\n      dup2\n        /* \"#utility.yul\":8870:8871   */\n      0x00\n        /* \"#utility.yul\":8863:8877   */\n      mstore\n        /* \"#utility.yul\":8907:8911   */\n      0x20\n        /* \"#utility.yul\":8904:8905   */\n      0x00\n        /* \"#utility.yul\":8894:8912   */\n      keccak256\n        /* \"#utility.yul\":8886:8912   */\n      swap1\n      pop\n        /* \"#utility.yul\":8778:8919   */\n      swap2\n      swap1\n      pop\n      jump\t// out\n        /* \"#utility.yul\":8925:9018   */\n    tag_99:\n        /* \"#utility.yul\":8962:8968   */\n      0x00\n        /* \"#utility.yul\":9009:9011   */\n      0x20\n        /* \"#utility.yul\":9004:9006   */\n      0x1f\n        /* \"#utility.yul\":8997:9002   */\n      dup4\n        /* \"#utility.yul\":8993:9007   */\n      add\n        /* \"#utility.yul\":8989:9012   */\n      div\n        /* \"#utility.yul\":8979:9012   */\n      swap1\n      pop\n        /* \"#utility.yul\":8925:9018   */\n      swap2\n      swap1\n      pop\n      jump\t// out\n        /* \"#utility.yul\":9024:9131   */\n    tag_100:\n        /* \"#utility.yul\":9068:9076   */\n      0x00\n        /* \"#utility.yul\":9118:9123   */\n      dup3\n        /* \"#utility.yul\":9112:9116   */\n      dup3\n        /* \"#utility.yul\":9108:9124   */\n      shl\n        /* \"#utility.yul\":9087:9124   */\n      swap1\n      pop\n        /* \"#utility.yul\":9024:9131   */\n      swap3\n      swap2\n      pop\n      pop\n      jump\t// out\n        /* \"#utility.yul\":9137:9530   */\n    tag_101:\n        /* \"#utility.yul\":9206:9212   */\n      0x00\n        /* \"#utility.yul\":9256:9257   */\n      0x08\n        /* \"#utility.yul\":9244:9254   */\n      dup4\n        /* \"#utility.yul\":9240:9258   */\n      mul\n        /* \"#utility.yul\":9279:9376   */\n      tag_212\n        /* \"#utility.yul\":9309:9375   */\n      0xffffffffffffffffffffffffffffffffffffffffffffffffffffffffffffffff\n        /* \"#utility.yul\":9298:9307   */\n      dup3\n        /* \"#utility.yul\":9279:9376   */\n      tag_100\n      jump\t// in\n    tag_212:\n        /* \"#utility.yul\":9397:9436   */\n      tag_213\n        /* \"#utility.yul\":9427:9435   */\n      dup7\n        /* \"#utility.yul\":9416:9425   */\n      dup4\n        /* \"#utility.yul\":9397:9436   */\n      tag_100\n      jump\t// in\n    tag_213:\n        /* \"#utility.yul\":9385:9436   */\n      swap6\n      pop\n        /* \"#utility.yul\":9469:9473   */\n      dup1\n        /* \"#utility.yul\":9465:9474   */\n      not\n        /* \"#utility.yul\":9458:9463   */\n      dup5\n        /* \"#utility.yul\":9454:9475   */\n      and\n        /* \"#utility.yul\":9445:9475   */\n      swap4\n      pop\n        /* \"#utility.yul\":9518:9522   */\n      dup1\n        /* \"#utility.yul\":9508:9516   */\n      dup7\n        /* \"#utility.yul\":9504:9523   */\n      and\n        /* \"#utility.yul\":9497:9502   */\n      dup5\n        /* \"#utility.yul\":9494:9524   */\n      or\n        /* \"#utility.yul\":9484:9524   */\n      swap3\n      pop\n        /* \"#utility.yul\":9213:9530   */\n      pop\n      pop\n        /* \"#utility.yul\":9137:9530   */\n      swap4\n      swap3\n      pop\n      pop\n      pop\n      jump\t// out\n        /* \"#utility.yul\":9536:9596   */\n    tag_102:\n        /* \"#utility.yul\":9564:9567   */\n      0x00\n        /* \"#utility.yul\":9585:9590   */\n      dup2\n        /* \"#utility.yul\":9578:9590   */\n      swap1\n      pop\n        /* \"#utility.yul\":9536:9596   */\n      swap2\n      swap1\n      pop\n      jump\t// out\n        /* \"#utility.yul\":9602:9744   */\n    tag_103:\n        /* \"#utility.yul\":9652:9661   */\n      0x00\n        /* \"#utility.yul\":9685:9738   */\n      tag_216\n        /* \"#utility.yul\":9703:9737   */\n      tag_217\n        /* \"#utility.yul\":9712:9736   */\n      tag_218\n        /* \"#utility.yul\":9730:9735   */\n      dup5\n        /* \"#utility.yul\":9712:9736   */\n      tag_84\n      jump\t// in\n    tag_218:\n        /* \"#utility.yul\":9703:9737   */\n      tag_102\n      jump\t// in\n    tag_217:\n        /* \"#utility.yul\":9685:9738   */\n      tag_84\n      jump\t// in\n    tag_216:\n        /* \"#utility.yul\":9672:9738   */\n      swap1\n      pop\n        /* \"#utility.yul\":9602:9744   */\n      swap2\n      swap1\n      pop\n      jump\t// out\n        /* \"#utility.yul\":9750:9825   */\n    tag_104:\n        /* \"#utility.yul\":9793:9796   */\n      0x00\n        /* \"#utility.yul\":9814:9819   */\n      dup2\n        /* \"#utility.yul\":9807:9819   */\n      swap1\n      pop\n        /* \"#utility.yul\":9750:9825   */\n      swap2\n      swap1\n      pop\n      jump\t// out\n        /* \"#utility.yul\":9831:10100   */\n    tag_105:\n        /* \"#utility.yul\":9941:9980   */\n      tag_221\n        /* \"#utility.yul\":9972:9979   */\n      dup4\n        /* \"#utility.yul\":9941:9980   */\n      tag_103\n      jump\t// in\n    tag_221:\n        /* \"#utility.yul\":10002:10093   */\n      tag_222\n        /* \"#utility.yul\":10051:10092   */\n      tag_223\n        /* \"#utility.yul\":10075:10091   */\n      dup3\n        /* \"#utility.yul\":10051:10092   */\n      tag_104\n      jump\t// in\n    tag_223:\n        /* \"#utility.yul\":10043:10049   */\n      dup5\n        /* \"#utility.yul\":10036:10040   */\n      dup5\n        /* \"#utility.yul\":10030:10041   */\n      sload\n        /* \"#utility.yul\":10002:10093   */\n      tag_101\n      jump\t// in\n    tag_222:\n        /* \"#utility.yul\":9996:10000   */\n      dup3\n        /* \"#utility.yul\":9989:10094   */\n      sstore\n        /* \"#utility.yul\":9907:10100   */\n      pop\n        /* \"#utility.yul\":9831:10100   */\n      pop\n      pop\n      pop\n      jump\t// out\n        /* \"#utility.yul\":10106:10179   */\n    tag_106:\n        /* \"#utility.yul\":10151:10154   */\n      0x00\n        /* \"#utility.yul\":10106:10179   */\n      swap1\n      jump\t// out\n        /* \"#utility.yul\":10185:10374   */\n    tag_107:\n        /* \"#utility.yul\":10262:10294   */\n      tag_226\n      tag_106\n      jump\t// in\n    tag_226:\n        /* \"#utility.yul\":10303:10368   */\n      tag_227\n        /* \"#utility.yul\":10361:10367   */\n      dup2\n        /* \"#utility.yul\":10353:10359   */\n      dup5\n        /* \"#utility.yul\":10347:10351   */\n      dup5\n        /* \"#utility.yul\":10303:10368   */\n      tag_105\n      jump\t// in\n    tag_227:\n        /* \"#utility.yul\":10238:10374   */\n      pop\n        /* \"#utility.yul\":10185:10374   */\n      pop\n      pop\n      jump\t// out\n        /* \"#utility.yul\":10380:10566   */\n    tag_108:\n        /* \"#utility.yul\":10440:10560   */\n    tag_229:\n        /* \"#utility.yul\":10457:10460   */\n      dup2\n        /* \"#utility.yul\":10450:10455   */\n      dup2\n        /* \"#utility.yul\":10447:10461   */\n      lt\n        /* \"#utility.yul\":10440:10560   */\n      iszero\n      tag_231\n      jumpi\n        /* \"#utility.yul\":10511:10550   */\n      tag_232\n        /* \"#utility.yul\":10548:10549   */\n      0x00\n        /* \"#utility.yul\":10541:10546   */\n      dup3\n        /* \"#utility.yul\":10511:10550   */\n      tag_107\n      jump\t// in\n    tag_232:\n        /* \"#utility.yul\":10484:10485   */\n      0x01\n        /* \"#utility.yul\":10477:10482   */\n      dup2\n        /* \"#utility.yul\":10473:10486   */\n      add\n        /* \"#utility.yul\":10464:10486   */\n      swap1\n      pop\n        /* \"#utility.yul\":10440:10560   */\n      jump(tag_229)\n    tag_231:\n        /* \"#utility.yul\":10380:10566   */\n      pop\n      pop\n      jump\t// out\n        /* \"#utility.yul\":10572:11115   */\n    tag_109:\n        /* \"#utility.yul\":10673:10675   */\n      0x1f\n        /* \"#utility.yul\":10668:10671   */\n      dup3\n        /* \"#utility.yul\":10665:10676   */\n      gt\n        /* \"#utility.yul\":10662:11108   */\n      iszero\n      tag_234\n      jumpi\n        /* \"#utility.yul\":10707:10745   */\n      tag_235\n        /* \"#utility.yul\":10739:10744   */\n      dup2\n        /* \"#utility.yul\":10707:10745   */\n      tag_98\n      jump\t// in\n    tag_235:\n        /* \"#utility.yul\":10791:10820   */\n      tag_236\n        /* \"#utility.yul\":10809:10819   */\n      dup5\n        /* \"#utility.yul\":10791:10820   */\n      tag_99\n      jump\t// in\n    tag_236:\n        /* \"#utility.yul\":10781:10789   */\n      dup2\n        /* \"#utility.yul\":10777:10821   */\n      add\n        /* \"#utility.yul\":10974:10976   */\n      0x20\n        /* \"#utility.yul\":10962:10972   */\n      dup6\n        /* \"#utility.yul\":10959:10977   */\n      lt\n        /* \"#utility.yul\":10956:11005   */\n      iszero\n      tag_237\n      jumpi\n        /* \"#utility.yul\":10995:11003   */\n      dup2\n        /* \"#utility.yul\":10980:11003   */\n      swap1\n      pop\n        /* \"#utility.yul\":10956:11005   */\n    tag_237:\n        /* \"#utility.yul\":11018:11098   */\n      tag_238\n        /* \"#utility.yul\":11074:11096   */\n      tag_239\n        /* \"#utility.yul\":11092:11095   */\n      dup6\n        /* \"#utility.yul\":11074:11096   */\n      tag_99\n      jump\t// in\n    tag_239:\n        /* \"#utility.yul\":11064:11072   */\n      dup4\n        /* \"#utility.yul\":11060:11097   */\n      add\n        /* \"#utility.yul\":11047:11058   */\n      dup3\n        /* \"#utility.yul\":11018:11098   */\n      tag_108\n      jump\t// in\n    tag_238:\n        /* \"#utility.yul\":10677:11108   */\n      pop\n      pop\n        /* \"#utility.yul\":10662:11108   */\n    tag_234:\n        /* \"#utility.yul\":10572:11115   */\n      pop\n      pop\n      pop\n      jump\t// out\n        /* \"#utility.yul\":11121:11238   */\n    tag_110:\n        /* \"#utility.yul\":11175:11183   */\n      0x00\n        /* \"#utility.yul\":11225:11230   */\n      dup3\n        /* \"#utility.yul\":11219:11223   */\n      dup3\n        /* \"#utility.yul\":11215:11231   */\n      shr\n        /* \"#utility.yul\":11194:11231   */\n      swap1\n      pop\n        /* \"#utility.yul\":11121:11238   */\n      swap3\n      swap2\n      pop\n      pop\n      jump\t// out\n        /* \"#utility.yul\":11244:11413   */\n    tag_111:\n        /* \"#utility.yul\":11288:11294   */\n      0x00\n        /* \"#utility.yul\":11321:11372   */\n      tag_242\n        /* \"#utility.yul\":11369:11370   */\n      0x00\n        /* \"#utility.yul\":11365:11371   */\n      not\n        /* \"#utility.yul\":11357:11362   */\n      dup5\n        /* \"#utility.yul\":11354:11355   */\n      0x08\n        /* \"#utility.yul\":11350:11363   */\n      mul\n        /* \"#utility.yul\":11321:11372   */\n      tag_110\n      jump\t// in\n    tag_242:\n        /* \"#utility.yul\":11317:11373   */\n      not\n        /* \"#utility.yul\":11402:11406   */\n      dup1\n        /* \"#utility.yul\":11396:11400   */\n      dup4\n        /* \"#utility.yul\":11392:11407   */\n      and\n        /* \"#utility.yul\":11382:11407   */\n      swap2\n      pop\n        /* \"#utility.yul\":11295:11413   */\n      pop\n        /* \"#utility.yul\":11244:11413   */\n      swap3\n      swap2\n      pop\n      pop\n      jump\t// out\n        /* \"#utility.yul\":11418:11713   */\n    tag_112:\n        /* \"#utility.yul\":11494:11498   */\n      0x00\n        /* \"#utility.yul\":11640:11669   */\n      tag_244\n        /* \"#utility.yul\":11665:11668   */\n      dup4\n        /* \"#utility.yul\":11659:11663   */\n      dup4\n        /* \"#utility.yul\":11640:11669   */\n      tag_111\n      jump\t// in\n    tag_244:\n        /* \"#utility.yul\":11632:11669   */\n      swap2\n      pop\n        /* \"#utility.yul\":11702:11705   */\n      dup3\n        /* \"#utility.yul\":11699:11700   */\n      0x02\n        /* \"#utility.yul\":11695:11706   */\n      mul\n        /* \"#utility.yul\":11689:11693   */\n      dup3\n        /* \"#utility.yul\":11686:11707   */\n      or\n        /* \"#utility.yul\":11678:11707   */\n      swap1\n      pop\n        /* \"#utility.yul\":11418:11713   */\n      swap3\n      swap2\n      pop\n      pop\n      jump\t// out\n        /* \"#utility.yul\":11718:13113   */\n    tag_59:\n        /* \"#utility.yul\":11835:11872   */\n      tag_246\n        /* \"#utility.yul\":11868:11871   */\n      dup3\n        /* \"#utility.yul\":11835:11872   */\n      tag_89\n      jump\t// in\n    tag_246:\n        /* \"#utility.yul\":11937:11955   */\n      0xffffffffffffffff\n        /* \"#utility.yul\":11929:11935   */\n      dup2\n        /* \"#utility.yul\":11926:11956   */\n      gt\n        /* \"#utility.yul\":11923:11979   */\n      iszero\n      tag_247\n      jumpi\n        /* \"#utility.yul\":11959:11977   */\n      tag_248\n      tag_77\n      jump\t// in\n    tag_248:\n        /* \"#utility.yul\":11923:11979   */\n    tag_247:\n        /* \"#utility.yul\":12003:12041   */\n      tag_249\n        /* \"#utility.yul\":12035:12039   */\n      dup3\n        /* \"#utility.yul\":12029:12040   */\n      sload\n        /* \"#utility.yul\":12003:12041   */\n      tag_51\n      jump\t// in\n    tag_249:\n        /* \"#utility.yul\":12088:12155   */\n      tag_250\n        /* \"#utility.yul\":12148:12154   */\n      dup3\n        /* \"#utility.yul\":12140:12146   */\n      dup3\n        /* \"#utility.yul\":12134:12138   */\n      dup6\n        /* \"#utility.yul\":12088:12155   */\n      tag_109\n      jump\t// in\n    tag_250:\n        /* \"#utility.yul\":12182:12183   */\n      0x00\n        /* \"#utility.yul\":12206:12210   */\n      0x20\n        /* \"#utility.yul\":12193:12210   */\n      swap1\n      pop\n        /* \"#utility.yul\":12238:12240   */\n      0x1f\n        /* \"#utility.yul\":12230:12236   */\n      dup4\n        /* \"#utility.yul\":12227:12241   */\n      gt\n        /* \"#utility.yul\":12255:12256   */\n      0x01\n        /* \"#utility.yul\":12250:12868   */\n      dup2\n      eq\n      tag_252\n      jumpi\n        /* \"#utility.yul\":12912:12913   */\n      0x00\n        /* \"#utility.yul\":12929:12935   */\n      dup5\n        /* \"#utility.yul\":12926:13003   */\n      iszero\n      tag_253\n      jumpi\n        /* \"#utility.yul\":12978:12987   */\n      dup3\n        /* \"#utility.yul\":12973:12976   */\n      dup8\n        /* \"#utility.yul\":12969:12988   */\n      add\n        /* \"#utility.yul\":12963:12989   */\n      mload\n        /* \"#utility.yul\":12954:12989   */\n      swap1\n      pop\n        /* \"#utility.yul\":12926:13003   */\n    tag_253:\n        /* \"#utility.yul\":13029:13096   */\n      tag_254\n        /* \"#utility.yul\":13089:13095   */\n      dup6\n        /* \"#utility.yul\":13082:13087   */\n      dup3\n        /* \"#utility.yul\":13029:13096   */\n      tag_112\n      jump\t// in\n    tag_254:\n        /* \"#utility.yul\":13023:13027   */\n      dup7\n        /* \"#utility.yul\":13016:13097   */\n      sstore\n        /* \"#utility.yul\":12885:13107   */\n      pop\n        /* \"#utility.yul\":12220:13107   */\n      jump(tag_251)\n        /* \"#utility.yul\":12250:12868   */\n    tag_252:\n        /* \"#utility.yul\":12302:12306   */\n      0x1f\n        /* \"#utility.yul\":12298:12307   */\n      not\n        /* \"#utility.yul\":12290:12296   */\n      dup5\n        /* \"#utility.yul\":12286:12308   */\n      and\n        /* \"#utility.yul\":12336:12373   */\n      tag_255\n        /* \"#utility.yul\":12368:12372   */\n      dup7\n        /* \"#utility.yul\":12336:12373   */\n      tag_98\n      jump\t// in\n    tag_255:\n        /* \"#utility.yul\":12395:12396   */\n      0x00\n        /* \"#utility.yul\":12409:12617   */\n    tag_256:\n        /* \"#utility.yul\":12423:12430   */\n      dup3\n        /* \"#utility.yul\":12420:12421   */\n      dup2\n        /* \"#utility.yul\":12417:12431   */\n      lt\n        /* \"#utility.yul\":12409:12617   */\n      iszero\n      tag_258\n      jumpi\n        /* \"#utility.yul\":12502:12511   */\n      dup5\n        /* \"#utility.yul\":12497:12500   */\n      dup10\n        /* \"#utility.yul\":12493:12512   */\n      add\n        /* \"#utility.yul\":12487:12513   */\n      mload\n        /* \"#utility.yul\":12479:12485   */\n      dup3\n        /* \"#utility.yul\":12472:12514   */\n      sstore\n        /* \"#utility.yul\":12553:12554   */\n      0x01\n        /* \"#utility.yul\":12545:12551   */\n      dup3\n        /* \"#utility.yul\":12541:12555   */\n      add\n        /* \"#utility.yul\":12531:12555   */\n      swap2\n      pop\n        /* \"#utility.yul\":12600:12602   */\n      0x20\n        /* \"#utility.yul\":12589:12598   */\n      dup6\n        /* \"#utility.yul\":12585:12603   */\n      add\n        /* \"#utility.yul\":12572:12603   */\n      swap5\n      pop\n        /* \"#utility.yul\":12446:12450   */\n      0x20\n        /* \"#utility.yul\":12443:12444   */\n      dup2\n        /* \"#utility.yul\":12439:12451   */\n      add\n        /* \"#utility.yul\":12434:12451   */\n      swap1\n      pop\n        /* \"#utility.yul\":12409:12617   */\n      jump(tag_256)\n    tag_258:\n        /* \"#utility.yul\":12645:12651   */\n      dup7\n        /* \"#utility.yul\":12636:12643   */\n      dup4\n        /* \"#utility.yul\":12633:12652   */\n      lt\n        /* \"#utility.yul\":12630:12809   */\n      iszero\n      tag_259\n      jumpi\n        /* \"#utility.yul\":12703:12712   */\n      dup5\n        /* \"#utility.yul\":12698:12701   */\n      dup10\n        /* \"#utility.yul\":12694:12713   */\n      add\n        /* \"#utility.yul\":12688:12714   */\n      mload\n        /* \"#utility.yul\":12746:12794   */\n      tag_260\n        /* \"#utility.yul\":12788:12792   */\n      0x1f\n        /* \"#utility.yul\":12780:12786   */\n      dup10\n        /* \"#utility.yul\":12776:12793   */\n      and\n        /* \"#utility.yul\":12765:12774   */\n      dup3\n        /* \"#utility.yul\":12746:12794   */\n      tag_111\n      jump\t// in\n    tag_260:\n        /* \"#utility.yul\":12738:12744   */\n      dup4\n        /* \"#utility.yul\":12731:12795   */\n      sstore\n        /* \"#utility.yul\":12653:12809   */\n      pop\n        /* \"#utility.yul\":12630:12809   */\n    tag_259:\n        /* \"#utility.yul\":12855:12856   */\n      0x01\n        /* \"#utility.yul\":12851:12852   */\n      0x02\n        /* \"#utility.yul\":12843:12849   */\n      dup9\n        /* \"#utility.yul\":12839:12853   */\n      mul\n        /* \"#utility.yul\":12835:12857   */\n      add\n        /* \"#utility.yul\":12829:12833   */\n      dup9\n        /* \"#utility.yul\":12822:12858   */\n      sstore\n        /* \"#utility.yul\":12257:12868   */\n      pop\n      pop\n      pop\n        /* \"#utility.yul\":12220:13107   */\n    tag_251:\n      pop\n        /* \"#utility.yul\":11810:13113   */\n      pop\n      pop\n      pop\n        /* \"#utility.yul\":11718:13113   */\n      pop\n      pop\n      jump\t// out\n        /* \"#utility.yul\":13119:13267   */\n    tag_113:\n        /* \"#utility.yul\":13221:13232   */\n      0x00\n        /* \"#utility.yul\":13258:13261   */\n      dup2\n        /* \"#utility.yul\":13243:13261   */\n      swap1\n      pop\n        /* \"#utility.yul\":13119:13267   */\n      swap3\n      swap2\n      pop\n      pop\n      jump\t// out\n        /* \"#utility.yul\":13297:13627   */\n    tag_114:\n        /* \"#utility.yul\":13413:13416   */\n      0x00\n        /* \"#utility.yul\":13434:13523   */\n      tag_263\n        /* \"#utility.yul\":13516:13522   */\n      dup4\n        /* \"#utility.yul\":13511:13514   */\n      dup6\n        /* \"#utility.yul\":13434:13523   */\n      tag_113\n      jump\t// in\n    tag_263:\n        /* \"#utility.yul\":13427:13523   */\n      swap4\n      pop\n        /* \"#utility.yul\":13533:13589   */\n      tag_264\n        /* \"#utility.yul\":13582:13588   */\n      dup4\n        /* \"#utility.yul\":13577:13580   */\n      dup6\n        /* \"#utility.yul\":13570:13575   */\n      dup5\n        /* \"#utility.yul\":13533:13589   */\n      tag_81\n      jump\t// in\n    tag_264:\n        /* \"#utility.yul\":13614:13620   */\n      dup3\n        /* \"#utility.yul\":13609:13612   */\n      dup5\n        /* \"#utility.yul\":13605:13621   */\n      add\n        /* \"#utility.yul\":13598:13621   */\n      swap1\n      pop\n        /* \"#utility.yul\":13297:13627   */\n      swap4\n      swap3\n      pop\n      pop\n      pop\n      jump\t// out\n        /* \"#utility.yul\":13633:13928   */\n    tag_61:\n        /* \"#utility.yul\":13775:13778   */\n      0x00\n        /* \"#utility.yul\":13797:13902   */\n      tag_266\n        /* \"#utility.yul\":13898:13901   */\n      dup3\n        /* \"#utility.yul\":13889:13895   */\n      dup5\n        /* \"#utility.yul\":13881:13887   */\n      dup7\n        /* \"#utility.yul\":13797:13902   */\n      tag_114\n      jump\t// in\n    tag_266:\n        /* \"#utility.yul\":13790:13902   */\n      swap2\n      pop\n        /* \"#utility.yul\":13919:13922   */\n      dup2\n        /* \"#utility.yul\":13912:13922   */\n      swap1\n      pop\n        /* \"#utility.yul\":13633:13928   */\n      swap4\n      swap3\n      pop\n      pop\n      pop\n      jump\t// out\n\n    auxdata: 0xa2646970667358221220747c7e521ce6c531a1fd93d38ff94ebb049f23523548be788f378e77695fbed764736f6c634300081a0033\n}\n",
				"bytecode": {
					"linkReferences": {},
					"object": "6080604052348015600e575f80fd5b50610b6f8061001c5f395ff3fe608060405234801561000f575f80fd5b506004361061007b575f3560e01c80635cb4c672116100595780635cb4c672146100fd5780636057361d1461011957806396c89e5c14610135578063d7afc1dc146101655761007b565b80632fae4ffd1461007f5780633aade401146100af5780635bae7047146100cd575b5f80fd5b61009960048036038101906100949190610562565b610195565b6040516100a691906105c1565b60405180910390f35b6100b76101c2565b6040516100c491906105c1565b60405180910390f35b6100e760048036038101906100e29190610604565b6101ca565b6040516100f491906106d8565b60405180910390f35b61011760048036038101906101129190610755565b61029d565b005b610133600480360381019061012e9190610604565b610367565b005b61014f600480360381019061014a91906107b2565b610397565b60405161015c91906105c1565b60405180910390f35b61017f600480360381019061017a9190610604565b6103c1565b60405161018c91906105c1565b60405180910390f35b6003818051602081018201805184825260208301602085012081835280955050505050505f915090505481565b5f8054905090565b6101d26103fc565b600282815481106101e6576101e56107fd565b5b905f5260205f2090600202016040518060400160405290815f820154815260200160018201805461021690610857565b80601f016020809104026020016040519081016040528092919081815260200182805461024290610857565b801561028d5780601f106102645761010080835404028352916020019161028d565b820191905f5260205f20905b81548152906001019060200180831161027057829003601f168201915b5050505050815250509050919050565b6002604051806040016040528085815260200184848080601f0160208091040260200160405190810160405280939291908181526020018383808284375f81840152601f19601f82011690508083019250505050505050815250908060018154018082558091505060019003905f5260205f2090600202015f909190919091505f820151815f0155602082015181600101908161033a9190610a24565b5050508260038383604051610350929190610b21565b908152602001604051809103902081905550505050565b805f8190555060015f54908060018154018082558091505060019003905f5260205f20015f909190919091505550565b5f600383836040516103aa929190610b21565b908152602001604051809103902054905092915050565b5f6001805490508211156103d7575f90506103f7565b600182815481106103eb576103ea6107fd565b5b905f5260205f20015490505b919050565b60405180604001604052805f8152602001606081525090565b5f604051905090565b5f80fd5b5f80fd5b5f80fd5b5f80fd5b5f601f19601f8301169050919050565b7f4e487b71000000000000000000000000000000000000000000000000000000005f52604160045260245ffd5b6104748261042e565b810181811067ffffffffffffffff821117156104935761049261043e565b5b80604052505050565b5f6104a5610415565b90506104b1828261046b565b919050565b5f67ffffffffffffffff8211156104d0576104cf61043e565b5b6104d98261042e565b9050602081019050919050565b828183375f83830152505050565b5f610506610501846104b6565b61049c565b9050828152602081018484840111156105225761052161042a565b5b61052d8482856104e6565b509392505050565b5f82601f83011261054957610548610426565b5b81356105598482602086016104f4565b91505092915050565b5f602082840312156105775761057661041e565b5b5f82013567ffffffffffffffff81111561059457610593610422565b5b6105a084828501610535565b91505092915050565b5f819050919050565b6105bb816105a9565b82525050565b5f6020820190506105d45f8301846105b2565b92915050565b6105e3816105a9565b81146105ed575f80fd5b50565b5f813590506105fe816105da565b92915050565b5f602082840312156106195761061861041e565b5b5f610626848285016105f0565b91505092915050565b610638816105a9565b82525050565b5f81519050919050565b5f82825260208201905092915050565b8281835e5f83830152505050565b5f6106708261063e565b61067a8185610648565b935061068a818560208601610658565b6106938161042e565b840191505092915050565b5f604083015f8301516106b35f86018261062f565b50602083015184820360208601526106cb8282610666565b9150508091505092915050565b5f6020820190508181035f8301526106f0818461069e565b905092915050565b5f80fd5b5f80fd5b5f8083601f84011261071557610714610426565b5b8235905067ffffffffffffffff811115610732576107316106f8565b5b60208301915083600182028301111561074e5761074d6106fc565b5b9250929050565b5f805f6040848603121561076c5761076b61041e565b5b5f610779868287016105f0565b935050602084013567ffffffffffffffff81111561079a57610799610422565b5b6107a686828701610700565b92509250509250925092565b5f80602083850312156107c8576107c761041e565b5b5f83013567ffffffffffffffff8111156107e5576107e4610422565b5b6107f185828601610700565b92509250509250929050565b7f4e487b71000000000000000000000000000000000000000000000000000000005f52603260045260245ffd5b7f4e487b71000000000000000000000000000000000000000000000000000000005f52602260045260245ffd5b5f600282049050600182168061086e57607f821691505b6020821081036108815761088061082a565b5b50919050565b5f819050815f5260205f209050919050565b5f6020601f8301049050919050565b5f82821b905092915050565b5f600883026108e37fffffffffffffffffffffffffffffffffffffffffffffffffffffffffffffffff826108a8565b6108ed86836108a8565b95508019841693508086168417925050509392505050565b5f819050919050565b5f61092861092361091e846105a9565b610905565b6105a9565b9050919050565b5f819050919050565b6109418361090e565b61095561094d8261092f565b8484546108b4565b825550505050565b5f90565b61096961095d565b610974818484610938565b505050565b5b818110156109975761098c5f82610961565b60018101905061097a565b5050565b601f8211156109dc576109ad81610887565b6109b684610899565b810160208510156109c5578190505b6109d96109d185610899565b830182610979565b50505b505050565b5f82821c905092915050565b5f6109fc5f19846008026109e1565b1980831691505092915050565b5f610a1483836109ed565b9150826002028217905092915050565b610a2d8261063e565b67ffffffffffffffff811115610a4657610a4561043e565b5b610a508254610857565b610a5b82828561099b565b5f60209050601f831160018114610a8c575f8415610a7a578287015190505b610a848582610a09565b865550610aeb565b601f198416610a9a86610887565b5f5b82811015610ac157848901518255600182019150602085019450602081019050610a9c565b86831015610ade5784890151610ada601f8916826109ed565b8355505b6001600288020188555050505b505050505050565b5f81905092915050565b5f610b088385610af3565b9350610b158385846104e6565b82840190509392505050565b5f610b2d828486610afd565b9150819050939250505056fea2646970667358221220747c7e521ce6c531a1fd93d38ff94ebb049f23523548be788f378e77695fbed764736f6c634300081a0033",
					"opcodes": "PUSH1 0x80 PUSH1 0x40 MSTORE CALLVALUE DUP1 ISZERO PUSH1 0xE JUMPI PUSH0 DUP1 REVERT JUMPDEST POP PUSH2 0xB6F DUP1 PUSH2 0x1C PUSH0 CODECOPY PUSH0 RETURN INVALID PUSH1 0x80 PUSH1 0x40 MSTORE CALLVALUE DUP1 ISZERO PUSH2 0xF JUMPI PUSH0 DUP1 REVERT JUMPDEST POP PUSH1 0x4 CALLDATASIZE LT PUSH2 0x7B JUMPI PUSH0 CALLDATALOAD PUSH1 0xE0 SHR DUP1 PUSH4 0x5CB4C672 GT PUSH2 0x59 JUMPI DUP1 PUSH4 0x5CB4C672 EQ PUSH2 0xFD JUMPI DUP1 PUSH4 0x6057361D EQ PUSH2 0x119 JUMPI DUP1 PUSH4 0x96C89E5C EQ PUSH2 0x135 JUMPI DUP1 PUSH4 0xD7AFC1DC EQ PUSH2 0x165 JUMPI PUSH2 0x7B JUMP JUMPDEST DUP1 PUSH4 0x2FAE4FFD EQ PUSH2 0x7F JUMPI DUP1 PUSH4 0x3AADE401 EQ PUSH2 0xAF JUMPI DUP1 PUSH4 0x5BAE7047 EQ PUSH2 0xCD JUMPI JUMPDEST PUSH0 DUP1 REVERT JUMPDEST PUSH2 0x99 PUSH1 0x4 DUP1 CALLDATASIZE SUB DUP2 ADD SWAP1 PUSH2 0x94 SWAP2 SWAP1 PUSH2 0x562 JUMP JUMPDEST PUSH2 0x195 JUMP JUMPDEST PUSH1 0x40 MLOAD PUSH2 0xA6 SWAP2 SWAP1 PUSH2 0x5C1 JUMP JUMPDEST PUSH1 0x40 MLOAD DUP1 SWAP2 SUB SWAP1 RETURN JUMPDEST PUSH2 0xB7 PUSH2 0x1C2 JUMP JUMPDEST PUSH1 0x40 MLOAD PUSH2 0xC4 SWAP2 SWAP1 PUSH2 0x5C1 JUMP JUMPDEST PUSH1 0x40 MLOAD DUP1 SWAP2 SUB SWAP1 RETURN JUMPDEST PUSH2 0xE7 PUSH1 0x4 DUP1 CALLDATASIZE SUB DUP2 ADD SWAP1 PUSH2 0xE2 SWAP2 SWAP1 PUSH2 0x604 JUMP JUMPDEST PUSH2 0x1CA JUMP JUMPDEST PUSH1 0x40 MLOAD PUSH2 0xF4 SWAP2 SWAP1 PUSH2 0x6D8 JUMP JUMPDEST PUSH1 0x40 MLOAD DUP1 SWAP2 SUB SWAP1 RETURN JUMPDEST PUSH2 0x117 PUSH1 0x4 DUP1 CALLDATASIZE SUB DUP2 ADD SWAP1 PUSH2 0x112 SWAP2 SWAP1 PUSH2 0x755 JUMP JUMPDEST PUSH2 0x29D JUMP JUMPDEST STOP JUMPDEST PUSH2 0x133 PUSH1 0x4 DUP1 CALLDATASIZE SUB DUP2 ADD SWAP1 PUSH2 0x12E SWAP2 SWAP1 PUSH2 0x604 JUMP JUMPDEST PUSH2 0x367 JUMP JUMPDEST STOP JUMPDEST PUSH2 0x14F PUSH1 0x4 DUP1 CALLDATASIZE SUB DUP2 ADD SWAP1 PUSH2 0x14A SWAP2 SWAP1 PUSH2 0x7B2 JUMP JUMPDEST PUSH2 0x397 JUMP JUMPDEST PUSH1 0x40 MLOAD PUSH2 0x15C SWAP2 SWAP1 PUSH2 0x5C1 JUMP JUMPDEST PUSH1 0x40 MLOAD DUP1 SWAP2 SUB SWAP1 RETURN JUMPDEST PUSH2 0x17F PUSH1 0x4 DUP1 CALLDATASIZE SUB DUP2 ADD SWAP1 PUSH2 0x17A SWAP2 SWAP1 PUSH2 0x604 JUMP JUMPDEST PUSH2 0x3C1 JUMP JUMPDEST PUSH1 0x40 MLOAD PUSH2 0x18C SWAP2 SWAP1 PUSH2 0x5C1 JUMP JUMPDEST PUSH1 0x40 MLOAD DUP1 SWAP2 SUB SWAP1 RETURN JUMPDEST PUSH1 0x3 DUP2 DUP1 MLOAD PUSH1 0x20 DUP2 ADD DUP3 ADD DUP1 MLOAD DUP5 DUP3 MSTORE PUSH1 0x20 DUP4 ADD PUSH1 0x20 DUP6 ADD KECCAK256 DUP2 DUP4 MSTORE DUP1 SWAP6 POP POP POP POP POP POP PUSH0 SWAP2 POP SWAP1 POP SLOAD DUP2 JUMP JUMPDEST PUSH0 DUP1 SLOAD SWAP1 POP SWAP1 JUMP JUMPDEST PUSH2 0x1D2 PUSH2 0x3FC JUMP JUMPDEST PUSH1 0x2 DUP3 DUP2 SLOAD DUP2 LT PUSH2 0x1E6 JUMPI PUSH2 0x1E5 PUSH2 0x7FD JUMP JUMPDEST JUMPDEST SWAP1 PUSH0 MSTORE PUSH1 0x20 PUSH0 KECCAK256 SWAP1 PUSH1 0x2 MUL ADD PUSH1 0x40 MLOAD DUP1 PUSH1 0x40 ADD PUSH1 0x40 MSTORE SWAP1 DUP2 PUSH0 DUP3 ADD SLOAD DUP2 MSTORE PUSH1 0x20 ADD PUSH1 0x1 DUP3 ADD DUP1 SLOAD PUSH2 0x216 SWAP1 PUSH2 0x857 JUMP JUMPDEST DUP1 PUSH1 0x1F ADD PUSH1 0x20 DUP1 SWAP2 DIV MUL PUSH1 0x20 ADD PUSH1 0x40 MLOAD SWAP1 DUP2 ADD PUSH1 0x40 MSTORE DUP1 SWAP3 SWAP2 SWAP1 DUP2 DUP2 MSTORE PUSH1 0x20 ADD DUP3 DUP1 SLOAD PUSH2 0x242 SWAP1 PUSH2 0x857 JUMP JUMPDEST DUP1 ISZERO PUSH2 0x28D JUMPI DUP1 PUSH1 0x1F LT PUSH2 0x264 JUMPI PUSH2 0x100 DUP1 DUP4 SLOAD DIV MUL DUP4 MSTORE SWAP2 PUSH1 0x20 ADD SWAP2 PUSH2 0x28D JUMP JUMPDEST DUP3 ADD SWAP2 SWAP1 PUSH0 MSTORE PUSH1 0x20 PUSH0 KECCAK256 SWAP1 JUMPDEST DUP2 SLOAD DUP2 MSTORE SWAP1 PUSH1 0x1 ADD SWAP1 PUSH1 0x20 ADD DUP1 DUP4 GT PUSH2 0x270 JUMPI DUP3 SWAP1 SUB PUSH1 0x1F AND DUP3 ADD SWAP2 JUMPDEST POP POP POP POP POP DUP2 MSTORE POP POP SWAP1 POP SWAP2 SWAP1 POP JUMP JUMPDEST PUSH1 0x2 PUSH1 0x40 MLOAD DUP1 PUSH1 0x40 ADD PUSH1 0x40 MSTORE DUP1 DUP6 DUP2 MSTORE PUSH1 0x20 ADD DUP5 DUP5 DUP1 DUP1 PUSH1 0x1F ADD PUSH1 0x20 DUP1 SWAP2 DIV MUL PUSH1 0x20 ADD PUSH1 0x40 MLOAD SWAP1 DUP2 ADD PUSH1 0x40 MSTORE DUP1 SWAP4 SWAP3 SWAP2 SWAP1 DUP2 DUP2 MSTORE PUSH1 0x20 ADD DUP4 DUP4 DUP1 DUP3 DUP5 CALLDATACOPY PUSH0 DUP2 DUP5 ADD MSTORE PUSH1 0x1F NOT PUSH1 0x1F DUP3 ADD AND SWAP1 POP DUP1 DUP4 ADD SWAP3 POP POP POP POP POP POP POP DUP2 MSTORE POP SWAP1 DUP1 PUSH1 0x1 DUP2 SLOAD ADD DUP1 DUP3 SSTORE DUP1 SWAP2 POP POP PUSH1 0x1 SWAP1 SUB SWAP1 PUSH0 MSTORE PUSH1 0x20 PUSH0 KECCAK256 SWAP1 PUSH1 0x2 MUL ADD PUSH0 SWAP1 SWAP2 SWAP1 SWAP2 SWAP1 SWAP2 POP PUSH0 DUP3 ADD MLOAD DUP2 PUSH0 ADD SSTORE PUSH1 0x20 DUP3 ADD MLOAD DUP2 PUSH1 0x1 ADD SWAP1 DUP2 PUSH2 0x33A SWAP2 SWAP1 PUSH2 0xA24 JUMP JUMPDEST POP POP POP DUP3 PUSH1 0x3 DUP4 DUP4 PUSH1 0x40 MLOAD PUSH2 0x350 SWAP3 SWAP2 SWAP1 PUSH2 0xB21 JUMP JUMPDEST SWAP1 DUP2 MSTORE PUSH1 0x20 ADD PUSH1 0x40 MLOAD DUP1 SWAP2 SUB SWAP1 KECCAK256 DUP2 SWAP1 SSTORE POP POP POP POP JUMP JUMPDEST DUP1 PUSH0 DUP2 SWAP1 SSTORE POP PUSH1 0x1 PUSH0 SLOAD SWAP1 DUP1 PUSH1 0x1 DUP2 SLOAD ADD DUP1 DUP3 SSTORE DUP1 SWAP2 POP POP PUSH1 0x1 SWAP1 SUB SWAP1 PUSH0 MSTORE PUSH1 0x20 PUSH0 KECCAK256 ADD PUSH0 SWAP1 SWAP2 SWAP1 SWAP2 SWAP1 SWAP2 POP SSTORE POP JUMP JUMPDEST PUSH0 PUSH1 0x3 DUP4 DUP4 PUSH1 0x40 MLOAD PUSH2 0x3AA SWAP3 SWAP2 SWAP1 PUSH2 0xB21 JUMP JUMPDEST SWAP1 DUP2 MSTORE PUSH1 0x20 ADD PUSH1 0x40 MLOAD DUP1 SWAP2 SUB SWAP1 KECCAK256 SLOAD SWAP1 POP SWAP3 SWAP2 POP POP JUMP JUMPDEST PUSH0 PUSH1 0x1 DUP1 SLOAD SWAP1 POP DUP3 GT ISZERO PUSH2 0x3D7 JUMPI PUSH0 SWAP1 POP PUSH2 0x3F7 JUMP JUMPDEST PUSH1 0x1 DUP3 DUP2 SLOAD DUP2 LT PUSH2 0x3EB JUMPI PUSH2 0x3EA PUSH2 0x7FD JUMP JUMPDEST JUMPDEST SWAP1 PUSH0 MSTORE PUSH1 0x20 PUSH0 KECCAK256 ADD SLOAD SWAP1 POP JUMPDEST SWAP2 SWAP1 POP JUMP JUMPDEST PUSH1 0x40 MLOAD DUP1 PUSH1 0x40 ADD PUSH1 0x40 MSTORE DUP1 PUSH0 DUP2 MSTORE PUSH1 0x20 ADD PUSH1 0x60 DUP2 MSTORE POP SWAP1 JUMP JUMPDEST PUSH0 PUSH1 0x40 MLOAD SWAP1 POP SWAP1 JUMP JUMPDEST PUSH0 DUP1 REVERT JUMPDEST PUSH0 DUP1 REVERT JUMPDEST PUSH0 DUP1 REVERT JUMPDEST PUSH0 DUP1 REVERT JUMPDEST PUSH0 PUSH1 0x1F NOT PUSH1 0x1F DUP4 ADD AND SWAP1 POP SWAP2 SWAP1 POP JUMP JUMPDEST PUSH32 0x4E487B7100000000000000000000000000000000000000000000000000000000 PUSH0 MSTORE PUSH1 0x41 PUSH1 0x4 MSTORE PUSH1 0x24 PUSH0 REVERT JUMPDEST PUSH2 0x474 DUP3 PUSH2 0x42E JUMP JUMPDEST DUP2 ADD DUP2 DUP2 LT PUSH8 0xFFFFFFFFFFFFFFFF DUP3 GT OR ISZERO PUSH2 0x493 JUMPI PUSH2 0x492 PUSH2 0x43E JUMP JUMPDEST JUMPDEST DUP1 PUSH1 0x40 MSTORE POP POP POP JUMP JUMPDEST PUSH0 PUSH2 0x4A5 PUSH2 0x415 JUMP JUMPDEST SWAP1 POP PUSH2 0x4B1 DUP3 DUP3 PUSH2 0x46B JUMP JUMPDEST SWAP2 SWAP1 POP JUMP JUMPDEST PUSH0 PUSH8 0xFFFFFFFFFFFFFFFF DUP3 GT ISZERO PUSH2 0x4D0 JUMPI PUSH2 0x4CF PUSH2 0x43E JUMP JUMPDEST JUMPDEST PUSH2 0x4D9 DUP3 PUSH2 0x42E JUMP JUMPDEST SWAP1 POP PUSH1 0x20 DUP2 ADD SWAP1 POP SWAP2 SWAP1 POP JUMP JUMPDEST DUP3 DUP2 DUP4 CALLDATACOPY PUSH0 DUP4 DUP4 ADD MSTORE POP POP POP JUMP JUMPDEST PUSH0 PUSH2 0x506 PUSH2 0x501 DUP5 PUSH2 0x4B6 JUMP JUMPDEST PUSH2 0x49C JUMP JUMPDEST SWAP1 POP DUP3 DUP2 MSTORE PUSH1 0x20 DUP2 ADD DUP5 DUP5 DUP5 ADD GT ISZERO PUSH2 0x522 JUMPI PUSH2 0x521 PUSH2 0x42A JUMP JUMPDEST JUMPDEST PUSH2 0x52D DUP5 DUP3 DUP6 PUSH2 0x4E6 JUMP JUMPDEST POP SWAP4 SWAP3 POP POP POP JUMP JUMPDEST PUSH0 DUP3 PUSH1 0x1F DUP4 ADD SLT PUSH2 0x549 JUMPI PUSH2 0x548 PUSH2 0x426 JUMP JUMPDEST JUMPDEST DUP2 CALLDATALOAD PUSH2 0x559 DUP5 DUP3 PUSH1 0x20 DUP7 ADD PUSH2 0x4F4 JUMP JUMPDEST SWAP2 POP POP SWAP3 SWAP2 POP POP JUMP JUMPDEST PUSH0 PUSH1 0x20 DUP3 DUP5 SUB SLT ISZERO PUSH2 0x577 JUMPI PUSH2 0x576 PUSH2 0x41E JUMP JUMPDEST JUMPDEST PUSH0 DUP3 ADD CALLDATALOAD PUSH8 0xFFFFFFFFFFFFFFFF DUP2 GT ISZERO PUSH2 0x594 JUMPI PUSH2 0x593 PUSH2 0x422 JUMP JUMPDEST JUMPDEST PUSH2 0x5A0 DUP5 DUP3 DUP6 ADD PUSH2 0x535 JUMP JUMPDEST SWAP2 POP POP SWAP3 SWAP2 POP POP JUMP JUMPDEST PUSH0 DUP2 SWAP1 POP SWAP2 SWAP1 POP JUMP JUMPDEST PUSH2 0x5BB DUP2 PUSH2 0x5A9 JUMP JUMPDEST DUP3 MSTORE POP POP JUMP JUMPDEST PUSH0 PUSH1 0x20 DUP3 ADD SWAP1 POP PUSH2 0x5D4 PUSH0 DUP4 ADD DUP5 PUSH2 0x5B2 JUMP JUMPDEST SWAP3 SWAP2 POP POP JUMP JUMPDEST PUSH2 0x5E3 DUP2 PUSH2 0x5A9 JUMP JUMPDEST DUP2 EQ PUSH2 0x5ED JUMPI PUSH0 DUP1 REVERT JUMPDEST POP JUMP JUMPDEST PUSH0 DUP2 CALLDATALOAD SWAP1 POP PUSH2 0x5FE DUP2 PUSH2 0x5DA JUMP JUMPDEST SWAP3 SWAP2 POP POP JUMP JUMPDEST PUSH0 PUSH1 0x20 DUP3 DUP5 SUB SLT ISZERO PUSH2 0x619 JUMPI PUSH2 0x618 PUSH2 0x41E JUMP JUMPDEST JUMPDEST PUSH0 PUSH2 0x626 DUP5 DUP3 DUP6 ADD PUSH2 0x5F0 JUMP JUMPDEST SWAP2 POP POP SWAP3 SWAP2 POP POP JUMP JUMPDEST PUSH2 0x638 DUP2 PUSH2 0x5A9 JUMP JUMPDEST DUP3 MSTORE POP POP JUMP JUMPDEST PUSH0 DUP2 MLOAD SWAP1 POP SWAP2 SWAP1 POP JUMP JUMPDEST PUSH0 DUP3 DUP3 MSTORE PUSH1 0x20 DUP3 ADD SWAP1 POP SWAP3 SWAP2 POP POP JUMP JUMPDEST DUP3 DUP2 DUP4 MCOPY PUSH0 DUP4 DUP4 ADD MSTORE POP POP POP JUMP JUMPDEST PUSH0 PUSH2 0x670 DUP3 PUSH2 0x63E JUMP JUMPDEST PUSH2 0x67A DUP2 DUP6 PUSH2 0x648 JUMP JUMPDEST SWAP4 POP PUSH2 0x68A DUP2 DUP6 PUSH1 0x20 DUP7 ADD PUSH2 0x658 JUMP JUMPDEST PUSH2 0x693 DUP2 PUSH2 0x42E JUMP JUMPDEST DUP5 ADD SWAP2 POP POP SWAP3 SWAP2 POP POP JUMP JUMPDEST PUSH0 PUSH1 0x40 DUP4 ADD PUSH0 DUP4 ADD MLOAD PUSH2 0x6B3 PUSH0 DUP7 ADD DUP3 PUSH2 0x62F JUMP JUMPDEST POP PUSH1 0x20 DUP4 ADD MLOAD DUP5 DUP3 SUB PUSH1 0x20 DUP7 ADD MSTORE PUSH2 0x6CB DUP3 DUP3 PUSH2 0x666 JUMP JUMPDEST SWAP2 POP POP DUP1 SWAP2 POP POP SWAP3 SWAP2 POP POP JUMP JUMPDEST PUSH0 PUSH1 0x20 DUP3 ADD SWAP1 POP DUP2 DUP2 SUB PUSH0 DUP4 ADD MSTORE PUSH2 0x6F0 DUP2 DUP5 PUSH2 0x69E JUMP JUMPDEST SWAP1 POP SWAP3 SWAP2 POP POP JUMP JUMPDEST PUSH0 DUP1 REVERT JUMPDEST PUSH0 DUP1 REVERT JUMPDEST PUSH0 DUP1 DUP4 PUSH1 0x1F DUP5 ADD SLT PUSH2 0x715 JUMPI PUSH2 0x714 PUSH2 0x426 JUMP JUMPDEST JUMPDEST DUP3 CALLDATALOAD SWAP1 POP PUSH8 0xFFFFFFFFFFFFFFFF DUP2 GT ISZERO PUSH2 0x732 JUMPI PUSH2 0x731 PUSH2 0x6F8 JUMP JUMPDEST JUMPDEST PUSH1 0x20 DUP4 ADD SWAP2 POP DUP4 PUSH1 0x1 DUP3 MUL DUP4 ADD GT ISZERO PUSH2 0x74E JUMPI PUSH2 0x74D PUSH2 0x6FC JUMP JUMPDEST JUMPDEST SWAP3 POP SWAP3 SWAP1 POP JUMP JUMPDEST PUSH0 DUP1 PUSH0 PUSH1 0x40 DUP5 DUP7 SUB SLT ISZERO PUSH2 0x76C JUMPI PUSH2 0x76B PUSH2 0x41E JUMP JUMPDEST JUMPDEST PUSH0 PUSH2 0x779 DUP7 DUP3 DUP8 ADD PUSH2 0x5F0 JUMP JUMPDEST SWAP4 POP POP PUSH1 0x20 DUP5 ADD CALLDATALOAD PUSH8 0xFFFFFFFFFFFFFFFF DUP2 GT ISZERO PUSH2 0x79A JUMPI PUSH2 0x799 PUSH2 0x422 JUMP JUMPDEST JUMPDEST PUSH2 0x7A6 DUP7 DUP3 DUP8 ADD PUSH2 0x700 JUMP JUMPDEST SWAP3 POP SWAP3 POP POP SWAP3 POP SWAP3 POP SWAP3 JUMP JUMPDEST PUSH0 DUP1 PUSH1 0x20 DUP4 DUP6 SUB SLT ISZERO PUSH2 0x7C8 JUMPI PUSH2 0x7C7 PUSH2 0x41E JUMP JUMPDEST JUMPDEST PUSH0 DUP4 ADD CALLDATALOAD PUSH8 0xFFFFFFFFFFFFFFFF DUP2 GT ISZERO PUSH2 0x7E5 JUMPI PUSH2 0x7E4 PUSH2 0x422 JUMP JUMPDEST JUMPDEST PUSH2 0x7F1 DUP6 DUP3 DUP7 ADD PUSH2 0x700 JUMP JUMPDEST SWAP3 POP SWAP3 POP POP SWAP3 POP SWAP3 SWAP1 POP JUMP JUMPDEST PUSH32 0x4E487B7100000000000000000000000000000000000000000000000000000000 PUSH0 MSTORE PUSH1 0x32 PUSH1 0x4 MSTORE PUSH1 0x24 PUSH0 REVERT JUMPDEST PUSH32 0x4E487B7100000000000000000000000000000000000000000000000000000000 PUSH0 MSTORE PUSH1 0x22 PUSH1 0x4 MSTORE PUSH1 0x24 PUSH0 REVERT JUMPDEST PUSH0 PUSH1 0x2 DUP3 DIV SWAP1 POP PUSH1 0x1 DUP3 AND DUP1 PUSH2 0x86E JUMPI PUSH1 0x7F DUP3 AND SWAP2 POP JUMPDEST PUSH1 0x20 DUP3 LT DUP2 SUB PUSH2 0x881 JUMPI PUSH2 0x880 PUSH2 0x82A JUMP JUMPDEST JUMPDEST POP SWAP2 SWAP1 POP JUMP JUMPDEST PUSH0 DUP2 SWAP1 POP DUP2 PUSH0 MSTORE PUSH1 0x20 PUSH0 KECCAK256 SWAP1 POP SWAP2 SWAP1 POP JUMP JUMPDEST PUSH0 PUSH1 0x20 PUSH1 0x1F DUP4 ADD DIV SWAP1 POP SWAP2 SWAP1 POP JUMP JUMPDEST PUSH0 DUP3 DUP3 SHL SWAP1 POP SWAP3 SWAP2 POP POP JUMP JUMPDEST PUSH0 PUSH1 0x8 DUP4 MUL PUSH2 0x8E3 PUSH32 0xFFFFFFFFFFFFFFFFFFFFFFFFFFFFFFFFFFFFFFFFFFFFFFFFFFFFFFFFFFFFFFFF DUP3 PUSH2 0x8A8 JUMP JUMPDEST PUSH2 0x8ED DUP7 DUP4 PUSH2 0x8A8 JUMP JUMPDEST SWAP6 POP DUP1 NOT DUP5 AND SWAP4 POP DUP1 DUP7 AND DUP5 OR SWAP3 POP POP POP SWAP4 SWAP3 POP POP POP JUMP JUMPDEST PUSH0 DUP2 SWAP1 POP SWAP2 SWAP1 POP JUMP JUMPDEST PUSH0 PUSH2 0x928 PUSH2 0x923 PUSH2 0x91E DUP5 PUSH2 0x5A9 JUMP JUMPDEST PUSH2 0x905 JUMP JUMPDEST PUSH2 0x5A9 JUMP JUMPDEST SWAP1 POP SWAP2 SWAP1 POP JUMP JUMPDEST PUSH0 DUP2 SWAP1 POP SWAP2 SWAP1 POP JUMP JUMPDEST PUSH2 0x941 DUP4 PUSH2 0x90E JUMP JUMPDEST PUSH2 0x955 PUSH2 0x94D DUP3 PUSH2 0x92F JUMP JUMPDEST DUP5 DUP5 SLOAD PUSH2 0x8B4 JUMP JUMPDEST DUP3 SSTORE POP POP POP POP JUMP JUMPDEST PUSH0 SWAP1 JUMP JUMPDEST PUSH2 0x969 PUSH2 0x95D JUMP JUMPDEST PUSH2 0x974 DUP2 DUP5 DUP5 PUSH2 0x938 JUMP JUMPDEST POP POP POP JUMP JUMPDEST JUMPDEST DUP2 DUP2 LT ISZERO PUSH2 0x997 JUMPI PUSH2 0x98C PUSH0 DUP3 PUSH2 0x961 JUMP JUMPDEST PUSH1 0x1 DUP2 ADD SWAP1 POP PUSH2 0x97A JUMP JUMPDEST POP POP JUMP JUMPDEST PUSH1 0x1F DUP3 GT ISZERO PUSH2 0x9DC JUMPI PUSH2 0x9AD DUP2 PUSH2 0x887 JUMP JUMPDEST PUSH2 0x9B6 DUP5 PUSH2 0x899 JUMP JUMPDEST DUP2 ADD PUSH1 0x20 DUP6 LT ISZERO PUSH2 0x9C5 JUMPI DUP2 SWAP1 POP JUMPDEST PUSH2 0x9D9 PUSH2 0x9D1 DUP6 PUSH2 0x899 JUMP JUMPDEST DUP4 ADD DUP3 PUSH2 0x979 JUMP JUMPDEST POP POP JUMPDEST POP POP POP JUMP JUMPDEST PUSH0 DUP3 DUP3 SHR SWAP1 POP SWAP3 SWAP2 POP POP JUMP JUMPDEST PUSH0 PUSH2 0x9FC PUSH0 NOT DUP5 PUSH1 0x8 MUL PUSH2 0x9E1 JUMP JUMPDEST NOT DUP1 DUP4 AND SWAP2 POP POP SWAP3 SWAP2 POP POP JUMP JUMPDEST PUSH0 PUSH2 0xA14 DUP4 DUP4 PUSH2 0x9ED JUMP JUMPDEST SWAP2 POP DUP3 PUSH1 0x2 MUL DUP3 OR SWAP1 POP SWAP3 SWAP2 POP POP JUMP JUMPDEST PUSH2 0xA2D DUP3 PUSH2 0x63E JUMP JUMPDEST PUSH8 0xFFFFFFFFFFFFFFFF DUP2 GT ISZERO PUSH2 0xA46 JUMPI PUSH2 0xA45 PUSH2 0x43E JUMP JUMPDEST JUMPDEST PUSH2 0xA50 DUP3 SLOAD PUSH2 0x857 JUMP JUMPDEST PUSH2 0xA5B DUP3 DUP3 DUP6 PUSH2 0x99B JUMP JUMPDEST PUSH0 PUSH1 0x20 SWAP1 POP PUSH1 0x1F DUP4 GT PUSH1 0x1 DUP2 EQ PUSH2 0xA8C JUMPI PUSH0 DUP5 ISZERO PUSH2 0xA7A JUMPI DUP3 DUP8 ADD MLOAD SWAP1 POP JUMPDEST PUSH2 0xA84 DUP6 DUP3 PUSH2 0xA09 JUMP JUMPDEST DUP7 SSTORE POP PUSH2 0xAEB JUMP JUMPDEST PUSH1 0x1F NOT DUP5 AND PUSH2 0xA9A DUP7 PUSH2 0x887 JUMP JUMPDEST PUSH0 JUMPDEST DUP3 DUP2 LT ISZERO PUSH2 0xAC1 JUMPI DUP5 DUP10 ADD MLOAD DUP3 SSTORE PUSH1 0x1 DUP3 ADD SWAP2 POP PUSH1 0x20 DUP6 ADD SWAP5 POP PUSH1 0x20 DUP2 ADD SWAP1 POP PUSH2 0xA9C JUMP JUMPDEST DUP7 DUP4 LT ISZERO PUSH2 0xADE JUMPI DUP5 DUP10 ADD MLOAD PUSH2 0xADA PUSH1 0x1F DUP10 AND DUP3 PUSH2 0x9ED JUMP JUMPDEST DUP4 SSTORE POP JUMPDEST PUSH1 0x1 PUSH1 0x2 DUP9 MUL ADD DUP9 SSTORE POP POP POP JUMPDEST POP POP POP POP POP POP JUMP JUMPDEST PUSH0 DUP2 SWAP1 POP SWAP3 SWAP2 POP POP JUMP JUMPDEST PUSH0 PUSH2 0xB08 DUP4 DUP6 PUSH2 0xAF3 JUMP JUMPDEST SWAP4 POP PUSH2 0xB15 DUP4 DUP6 DUP5 PUSH2 0x4E6 JUMP JUMPDEST DUP3 DUP5 ADD SWAP1 POP SWAP4 SWAP3 POP POP POP JUMP JUMPDEST PUSH0 PUSH2 0xB2D DUP3 DUP5 DUP7 PUSH2 0xAFD JUMP JUMPDEST SWAP2 POP DUP2 SWAP1 POP SWAP4 SWAP3 POP POP POP JUMP INVALID LOG2 PUSH5 0x6970667358 0x22 SLT KECCAK256 PUSH21 0x7C7E521CE6C531A1FD93D38FF94EBB049F23523548 0xBE PUSH25 0x8F378E77695FBED764736F6C634300081A0033000000000000 "
				},
				"gasEstimates": {
					"creation": {
						"codeDepositCost": "585400",
						"executionCost": "617",
						"totalCost": "586017"
					},
					"external": {
						"nameToNumber(string)": "infinite",
						"retreiveFavNumber()": "2455",
						"retreiveFavNumberAtIndex(uint256)": "infinite",
						"retreivePersonAtIndex(uint256)": "infinite",
						"retreivePersonFromName(string)": "infinite",
						"store(uint256)": "71055",
						"storePerson(uint256,string)": "infinite"
					}
				},
				"methodIdentifiers": {
					"nameToNumber(string)": "2fae4ffd",
					"retreiveFavNumber()": "3aade401",
					"retreiveFavNumberAtIndex(uint256)": "d7afc1dc",
					"retreivePersonAtIndex(uint256)": "5bae7047",
					"retreivePersonFromName(string)": "96c89e5c",
					"store(uint256)": "6057361d",
					"storePerson(uint256,string)": "5cb4c672"
				}
			},
			"storageLayout": {
				"storage": [
					{
						"astId": 3,
						"contract": "SimpleStorage.sol:SimpleStorage",
						"label": "favouriteNumber",
						"offset": 0,
						"slot": "0",
						"type": "t_uint256"
					},
					{
						"astId": 6,
						"contract": "SimpleStorage.sol:SimpleStorage",
						"label": "listOfFavNumbers",
						"offset": 0,
						"slot": "1",
						"type": "t_array(t_uint256)dyn_storage"
					},
					{
						"astId": 10,
						"contract": "SimpleStorage.sol:SimpleStorage",
						"label": "peopleList",
						"offset": 0,
						"slot": "2",
						"type": "t_array(t_struct(Person)19_storage)dyn_storage"
					},
					{
						"astId": 14,
						"contract": "SimpleStorage.sol:SimpleStorage",
						"label": "nameToNumber",
						"offset": 0,
						"slot": "3",
						"type": "t_mapping(t_string_memory_ptr,t_uint256)"
					}
				],
				"types": {
					"t_array(t_struct(Person)19_storage)dyn_storage": {
						"base": "t_struct(Person)19_storage",
						"encoding": "dynamic_array",
						"label": "struct SimpleStorage.Person[]",
						"numberOfBytes": "32"
					},
					"t_array(t_uint256)dyn_storage": {
						"base": "t_uint256",
						"encoding": "dynamic_array",
						"label": "uint256[]",
						"numberOfBytes": "32"
					},
					"t_mapping(t_string_memory_ptr,t_uint256)": {
						"encoding": "mapping",
						"key": "t_string_memory_ptr",
						"label": "mapping(string => uint256)",
						"numberOfBytes": "32",
						"value": "t_uint256"
					},
					"t_string_memory_ptr": {
						"encoding": "bytes",
						"label": "string",
						"numberOfBytes": "32"
					},
					"t_string_storage": {
						"encoding": "bytes",
						"label": "string",
						"numberOfBytes": "32"
					},
					"t_struct(Person)19_storage": {
						"encoding": "inplace",
						"label": "struct SimpleStorage.Person",
						"members": [
							{
								"astId": 16,
								"contract": "SimpleStorage.sol:SimpleStorage",
								"label": "number",
								"offset": 0,
								"slot": "0",
								"type": "t_uint256"
							},
							{
								"astId": 18,
								"contract": "SimpleStorage.sol:SimpleStorage",
								"label": "name",
								"offset": 0,
								"slot": "1",
								"type": "t_string_storage"
							}
						],
						"numberOfBytes": "64"
					},
					"t_uint256": {
						"encoding": "inplace",
						"label": "uint256",
						"numberOfBytes": "32"
					}
				}
			},
			"userdoc": {
				"kind": "user",
				"methods": {},
				"version": 1
			}
		}
	}
}