{
	"data": {
		"bytecode": {
			"linkReferences": {},
			"object": "608060405234801561000f575f80fd5b50610b628061001d5f395ff3fe608060405234801561000f575f80fd5b506004361061007b575f3560e01c80635cb4c672116100595780635cb4c672146100fd5780636057361d1461011957806396c89e5c14610135578063d7afc1dc146101655761007b565b80632fae4ffd1461007f5780633aade401146100af5780635bae7047146100cd575b5f80fd5b6100996004803603810190610094919061053b565b610195565b6040516100a6919061059a565b60405180910390f35b6100b76101c2565b6040516100c4919061059a565b60405180910390f35b6100e760048036038101906100e291906105dd565b6101ca565b6040516100f491906106cb565b60405180910390f35b61011760048036038101906101129190610748565b61029d565b005b610133600480360381019061012e91906105dd565b610367565b005b61014f600480360381019061014a91906107a5565b610370565b60405161015c919061059a565b60405180910390f35b61017f600480360381019061017a91906105dd565b61039a565b60405161018c919061059a565b60405180910390f35b6003818051602081018201805184825260208301602085012081835280955050505050505f915090505481565b5f8054905090565b6101d26103d5565b600282815481106101e6576101e56107f0565b5b905f5260205f2090600202016040518060400160405290815f82015481526020016001820180546102169061084a565b80601f01602080910402602001604051908101604052809291908181526020018280546102429061084a565b801561028d5780601f106102645761010080835404028352916020019161028d565b820191905f5260205f20905b81548152906001019060200180831161027057829003601f168201915b5050505050815250509050919050565b6002604051806040016040528085815260200184848080601f0160208091040260200160405190810160405280939291908181526020018383808284375f81840152601f19601f82011690508083019250505050505050815250908060018154018082558091505060019003905f5260205f2090600202015f909190919091505f820151815f0155602082015181600101908161033a9190610a17565b5050508260038383604051610350929190610b14565b908152602001604051809103902081905550505050565b805f8190555050565b5f60038383604051610383929190610b14565b908152602001604051809103902054905092915050565b5f6001805490508211156103b0575f90506103d0565b600182815481106103c4576103c36107f0565b5b905f5260205f20015490505b919050565b60405180604001604052805f8152602001606081525090565b5f604051905090565b5f80fd5b5f80fd5b5f80fd5b5f80fd5b5f601f19601f8301169050919050565b7f4e487b71000000000000000000000000000000000000000000000000000000005f52604160045260245ffd5b61044d82610407565b810181811067ffffffffffffffff8211171561046c5761046b610417565b5b80604052505050565b5f61047e6103ee565b905061048a8282610444565b919050565b5f67ffffffffffffffff8211156104a9576104a8610417565b5b6104b282610407565b9050602081019050919050565b828183375f83830152505050565b5f6104df6104da8461048f565b610475565b9050828152602081018484840111156104fb576104fa610403565b5b6105068482856104bf565b509392505050565b5f82601f830112610522576105216103ff565b5b81356105328482602086016104cd565b91505092915050565b5f602082840312156105505761054f6103f7565b5b5f82013567ffffffffffffffff81111561056d5761056c6103fb565b5b6105798482850161050e565b91505092915050565b5f819050919050565b61059481610582565b82525050565b5f6020820190506105ad5f83018461058b565b92915050565b6105bc81610582565b81146105c6575f80fd5b50565b5f813590506105d7816105b3565b92915050565b5f602082840312156105f2576105f16103f7565b5b5f6105ff848285016105c9565b91505092915050565b61061181610582565b82525050565b5f81519050919050565b5f82825260208201905092915050565b5f5b8381101561064e578082015181840152602081019050610633565b5f8484015250505050565b5f61066382610617565b61066d8185610621565b935061067d818560208601610631565b61068681610407565b840191505092915050565b5f604083015f8301516106a65f860182610608565b50602083015184820360208601526106be8282610659565b9150508091505092915050565b5f6020820190508181035f8301526106e38184610691565b905092915050565b5f80fd5b5f80fd5b5f8083601f840112610708576107076103ff565b5b8235905067ffffffffffffffff811115610725576107246106eb565b5b602083019150836001820283011115610741576107406106ef565b5b9250929050565b5f805f6040848603121561075f5761075e6103f7565b5b5f61076c868287016105c9565b935050602084013567ffffffffffffffff81111561078d5761078c6103fb565b5b610799868287016106f3565b92509250509250925092565b5f80602083850312156107bb576107ba6103f7565b5b5f83013567ffffffffffffffff8111156107d8576107d76103fb565b5b6107e4858286016106f3565b92509250509250929050565b7f4e487b71000000000000000000000000000000000000000000000000000000005f52603260045260245ffd5b7f4e487b71000000000000000000000000000000000000000000000000000000005f52602260045260245ffd5b5f600282049050600182168061086157607f821691505b6020821081036108745761087361081d565b5b50919050565b5f819050815f5260205f209050919050565b5f6020601f8301049050919050565b5f82821b905092915050565b5f600883026108d67fffffffffffffffffffffffffffffffffffffffffffffffffffffffffffffffff8261089b565b6108e0868361089b565b95508019841693508086168417925050509392505050565b5f819050919050565b5f61091b61091661091184610582565b6108f8565b610582565b9050919050565b5f819050919050565b61093483610901565b61094861094082610922565b8484546108a7565b825550505050565b5f90565b61095c610950565b61096781848461092b565b505050565b5b8181101561098a5761097f5f82610954565b60018101905061096d565b5050565b601f8211156109cf576109a08161087a565b6109a98461088c565b810160208510156109b8578190505b6109cc6109c48561088c565b83018261096c565b50505b505050565b5f82821c905092915050565b5f6109ef5f19846008026109d4565b1980831691505092915050565b5f610a0783836109e0565b9150826002028217905092915050565b610a2082610617565b67ffffffffffffffff811115610a3957610a38610417565b5b610a43825461084a565b610a4e82828561098e565b5f60209050601f831160018114610a7f575f8415610a6d578287015190505b610a7785826109fc565b865550610ade565b601f198416610a8d8661087a565b5f5b82811015610ab457848901518255600182019150602085019450602081019050610a8f565b86831015610ad15784890151610acd601f8916826109e0565b8355505b6001600288020188555050505b505050505050565b5f81905092915050565b5f610afb8385610ae6565b9350610b088385846104bf565b82840190509392505050565b5f610b20828486610af0565b9150819050939250505056fea2646970667358221220853f2c942f7427c70de821f9edc9a1af6262f5835df81ca4b1c7a5971f6628a864736f6c63430008180033",
			"opcodes": "PUSH1 0x80 PUSH1 0x40 MSTORE CALLVALUE DUP1 ISZERO PUSH2 0xF JUMPI PUSH0 DUP1 REVERT JUMPDEST POP PUSH2 0xB62 DUP1 PUSH2 0x1D PUSH0 CODECOPY PUSH0 RETURN INVALID PUSH1 0x80 PUSH1 0x40 MSTORE CALLVALUE DUP1 ISZERO PUSH2 0xF JUMPI PUSH0 DUP1 REVERT JUMPDEST POP PUSH1 0x4 CALLDATASIZE LT PUSH2 0x7B JUMPI PUSH0 CALLDATALOAD PUSH1 0xE0 SHR DUP1 PUSH4 0x5CB4C672 GT PUSH2 0x59 JUMPI DUP1 PUSH4 0x5CB4C672 EQ PUSH2 0xFD JUMPI DUP1 PUSH4 0x6057361D EQ PUSH2 0x119 JUMPI DUP1 PUSH4 0x96C89E5C EQ PUSH2 0x135 JUMPI DUP1 PUSH4 0xD7AFC1DC EQ PUSH2 0x165 JUMPI PUSH2 0x7B JUMP JUMPDEST DUP1 PUSH4 0x2FAE4FFD EQ PUSH2 0x7F JUMPI DUP1 PUSH4 0x3AADE401 EQ PUSH2 0xAF JUMPI DUP1 PUSH4 0x5BAE7047 EQ PUSH2 0xCD JUMPI JUMPDEST PUSH0 DUP1 REVERT JUMPDEST PUSH2 0x99 PUSH1 0x4 DUP1 CALLDATASIZE SUB DUP2 ADD SWAP1 PUSH2 0x94 SWAP2 SWAP1 PUSH2 0x53B JUMP JUMPDEST PUSH2 0x195 JUMP JUMPDEST PUSH1 0x40 MLOAD PUSH2 0xA6 SWAP2 SWAP1 PUSH2 0x59A JUMP JUMPDEST PUSH1 0x40 MLOAD DUP1 SWAP2 SUB SWAP1 RETURN JUMPDEST PUSH2 0xB7 PUSH2 0x1C2 JUMP JUMPDEST PUSH1 0x40 MLOAD PUSH2 0xC4 SWAP2 SWAP1 PUSH2 0x59A JUMP JUMPDEST PUSH1 0x40 MLOAD DUP1 SWAP2 SUB SWAP1 RETURN JUMPDEST PUSH2 0xE7 PUSH1 0x4 DUP1 CALLDATASIZE SUB DUP2 ADD SWAP1 PUSH2 0xE2 SWAP2 SWAP1 PUSH2 0x5DD JUMP JUMPDEST PUSH2 0x1CA JUMP JUMPDEST PUSH1 0x40 MLOAD PUSH2 0xF4 SWAP2 SWAP1 PUSH2 0x6CB JUMP JUMPDEST PUSH1 0x40 MLOAD DUP1 SWAP2 SUB SWAP1 RETURN JUMPDEST PUSH2 0x117 PUSH1 0x4 DUP1 CALLDATASIZE SUB DUP2 ADD SWAP1 PUSH2 0x112 SWAP2 SWAP1 PUSH2 0x748 JUMP JUMPDEST PUSH2 0x29D JUMP JUMPDEST STOP JUMPDEST PUSH2 0x133 PUSH1 0x4 DUP1 CALLDATASIZE SUB DUP2 ADD SWAP1 PUSH2 0x12E SWAP2 SWAP1 PUSH2 0x5DD JUMP JUMPDEST PUSH2 0x367 JUMP JUMPDEST STOP JUMPDEST PUSH2 0x14F PUSH1 0x4 DUP1 CALLDATASIZE SUB DUP2 ADD SWAP1 PUSH2 0x14A SWAP2 SWAP1 PUSH2 0x7A5 JUMP JUMPDEST PUSH2 0x370 JUMP JUMPDEST PUSH1 0x40 MLOAD PUSH2 0x15C SWAP2 SWAP1 PUSH2 0x59A JUMP JUMPDEST PUSH1 0x40 MLOAD DUP1 SWAP2 SUB SWAP1 RETURN JUMPDEST PUSH2 0x17F PUSH1 0x4 DUP1 CALLDATASIZE SUB DUP2 ADD SWAP1 PUSH2 0x17A SWAP2 SWAP1 PUSH2 0x5DD JUMP JUMPDEST PUSH2 0x39A JUMP JUMPDEST PUSH1 0x40 MLOAD PUSH2 0x18C SWAP2 SWAP1 PUSH2 0x59A JUMP JUMPDEST PUSH1 0x40 MLOAD DUP1 SWAP2 SUB SWAP1 RETURN JUMPDEST PUSH1 0x3 DUP2 DUP1 MLOAD PUSH1 0x20 DUP2 ADD DUP3 ADD DUP1 MLOAD DUP5 DUP3 MSTORE PUSH1 0x20 DUP4 ADD PUSH1 0x20 DUP6 ADD KECCAK256 DUP2 DUP4 MSTORE DUP1 SWAP6 POP POP POP POP POP POP PUSH0 SWAP2 POP SWAP1 POP SLOAD DUP2 JUMP JUMPDEST PUSH0 DUP1 SLOAD SWAP1 POP SWAP1 JUMP JUMPDEST PUSH2 0x1D2 PUSH2 0x3D5 JUMP JUMPDEST PUSH1 0x2 DUP3 DUP2 SLOAD DUP2 LT PUSH2 0x1E6 JUMPI PUSH2 0x1E5 PUSH2 0x7F0 JUMP JUMPDEST JUMPDEST SWAP1 PUSH0 MSTORE PUSH1 0x20 PUSH0 KECCAK256 SWAP1 PUSH1 0x2 MUL ADD PUSH1 0x40 MLOAD DUP1 PUSH1 0x40 ADD PUSH1 0x40 MSTORE SWAP1 DUP2 PUSH0 DUP3 ADD SLOAD DUP2 MSTORE PUSH1 0x20 ADD PUSH1 0x1 DUP3 ADD DUP1 SLOAD PUSH2 0x216 SWAP1 PUSH2 0x84A JUMP JUMPDEST DUP1 PUSH1 0x1F ADD PUSH1 0x20 DUP1 SWAP2 DIV MUL PUSH1 0x20 ADD PUSH1 0x40 MLOAD SWAP1 DUP2 ADD PUSH1 0x40 MSTORE DUP1 SWAP3 SWAP2 SWAP1 DUP2 DUP2 MSTORE PUSH1 0x20 ADD DUP3 DUP1 SLOAD PUSH2 0x242 SWAP1 PUSH2 0x84A JUMP JUMPDEST DUP1 ISZERO PUSH2 0x28D JUMPI DUP1 PUSH1 0x1F LT PUSH2 0x264 JUMPI PUSH2 0x100 DUP1 DUP4 SLOAD DIV MUL DUP4 MSTORE SWAP2 PUSH1 0x20 ADD SWAP2 PUSH2 0x28D JUMP JUMPDEST DUP3 ADD SWAP2 SWAP1 PUSH0 MSTORE PUSH1 0x20 PUSH0 KECCAK256 SWAP1 JUMPDEST DUP2 SLOAD DUP2 MSTORE SWAP1 PUSH1 0x1 ADD SWAP1 PUSH1 0x20 ADD DUP1 DUP4 GT PUSH2 0x270 JUMPI DUP3 SWAP1 SUB PUSH1 0x1F AND DUP3 ADD SWAP2 JUMPDEST POP POP POP POP POP DUP2 MSTORE POP POP SWAP1 POP SWAP2 SWAP1 POP JUMP JUMPDEST PUSH1 0x2 PUSH1 0x40 MLOAD DUP1 PUSH1 0x40 ADD PUSH1 0x40 MSTORE DUP1 DUP6 DUP2 MSTORE PUSH1 0x20 ADD DUP5 DUP5 DUP1 DUP1 PUSH1 0x1F ADD PUSH1 0x20 DUP1 SWAP2 DIV MUL PUSH1 0x20 ADD PUSH1 0x40 MLOAD SWAP1 DUP2 ADD PUSH1 0x40 MSTORE DUP1 SWAP4 SWAP3 SWAP2 SWAP1 DUP2 DUP2 MSTORE PUSH1 0x20 ADD DUP4 DUP4 DUP1 DUP3 DUP5 CALLDATACOPY PUSH0 DUP2 DUP5 ADD MSTORE PUSH1 0x1F NOT PUSH1 0x1F DUP3 ADD AND SWAP1 POP DUP1 DUP4 ADD SWAP3 POP POP POP POP POP POP POP DUP2 MSTORE POP SWAP1 DUP1 PUSH1 0x1 DUP2 SLOAD ADD DUP1 DUP3 SSTORE DUP1 SWAP2 POP POP PUSH1 0x1 SWAP1 SUB SWAP1 PUSH0 MSTORE PUSH1 0x20 PUSH0 KECCAK256 SWAP1 PUSH1 0x2 MUL ADD PUSH0 SWAP1 SWAP2 SWAP1 SWAP2 SWAP1 SWAP2 POP PUSH0 DUP3 ADD MLOAD DUP2 PUSH0 ADD SSTORE PUSH1 0x20 DUP3 ADD MLOAD DUP2 PUSH1 0x1 ADD SWAP1 DUP2 PUSH2 0x33A SWAP2 SWAP1 PUSH2 0xA17 JUMP JUMPDEST POP POP POP DUP3 PUSH1 0x3 DUP4 DUP4 PUSH1 0x40 MLOAD PUSH2 0x350 SWAP3 SWAP2 SWAP1 PUSH2 0xB14 JUMP JUMPDEST SWAP1 DUP2 MSTORE PUSH1 0x20 ADD PUSH1 0x40 MLOAD DUP1 SWAP2 SUB SWAP1 KECCAK256 DUP2 SWAP1 SSTORE POP POP POP POP JUMP JUMPDEST DUP1 PUSH0 DUP2 SWAP1 SSTORE POP POP JUMP JUMPDEST PUSH0 PUSH1 0x3 DUP4 DUP4 PUSH1 0x40 MLOAD PUSH2 0x383 SWAP3 SWAP2 SWAP1 PUSH2 0xB14 JUMP JUMPDEST SWAP1 DUP2 MSTORE PUSH1 0x20 ADD PUSH1 0x40 MLOAD DUP1 SWAP2 SUB SWAP1 KECCAK256 SLOAD SWAP1 POP SWAP3 SWAP2 POP POP JUMP JUMPDEST PUSH0 PUSH1 0x1 DUP1 SLOAD SWAP1 POP DUP3 GT ISZERO PUSH2 0x3B0 JUMPI PUSH0 SWAP1 POP PUSH2 0x3D0 JUMP JUMPDEST PUSH1 0x1 DUP3 DUP2 SLOAD DUP2 LT PUSH2 0x3C4 JUMPI PUSH2 0x3C3 PUSH2 0x7F0 JUMP JUMPDEST JUMPDEST SWAP1 PUSH0 MSTORE PUSH1 0x20 PUSH0 KECCAK256 ADD SLOAD SWAP1 POP JUMPDEST SWAP2 SWAP1 POP JUMP JUMPDEST PUSH1 0x40 MLOAD DUP1 PUSH1 0x40 ADD PUSH1 0x40 MSTORE DUP1 PUSH0 DUP2 MSTORE PUSH1 0x20 ADD PUSH1 0x60 DUP2 MSTORE POP SWAP1 JUMP JUMPDEST PUSH0 PUSH1 0x40 MLOAD SWAP1 POP SWAP1 JUMP JUMPDEST PUSH0 DUP1 REVERT JUMPDEST PUSH0 DUP1 REVERT JUMPDEST PUSH0 DUP1 REVERT JUMPDEST PUSH0 DUP1 REVERT JUMPDEST PUSH0 PUSH1 0x1F NOT PUSH1 0x1F DUP4 ADD AND SWAP1 POP SWAP2 SWAP1 POP JUMP JUMPDEST PUSH32 0x4E487B7100000000000000000000000000000000000000000000000000000000 PUSH0 MSTORE PUSH1 0x41 PUSH1 0x4 MSTORE PUSH1 0x24 PUSH0 REVERT JUMPDEST PUSH2 0x44D DUP3 PUSH2 0x407 JUMP JUMPDEST DUP2 ADD DUP2 DUP2 LT PUSH8 0xFFFFFFFFFFFFFFFF DUP3 GT OR ISZERO PUSH2 0x46C JUMPI PUSH2 0x46B PUSH2 0x417 JUMP JUMPDEST JUMPDEST DUP1 PUSH1 0x40 MSTORE POP POP POP JUMP JUMPDEST PUSH0 PUSH2 0x47E PUSH2 0x3EE JUMP JUMPDEST SWAP1 POP PUSH2 0x48A DUP3 DUP3 PUSH2 0x444 JUMP JUMPDEST SWAP2 SWAP1 POP JUMP JUMPDEST PUSH0 PUSH8 0xFFFFFFFFFFFFFFFF DUP3 GT ISZERO PUSH2 0x4A9 JUMPI PUSH2 0x4A8 PUSH2 0x417 JUMP JUMPDEST JUMPDEST PUSH2 0x4B2 DUP3 PUSH2 0x407 JUMP JUMPDEST SWAP1 POP PUSH1 0x20 DUP2 ADD SWAP1 POP SWAP2 SWAP1 POP JUMP JUMPDEST DUP3 DUP2 DUP4 CALLDATACOPY PUSH0 DUP4 DUP4 ADD MSTORE POP POP POP JUMP JUMPDEST PUSH0 PUSH2 0x4DF PUSH2 0x4DA DUP5 PUSH2 0x48F JUMP JUMPDEST PUSH2 0x475 JUMP JUMPDEST SWAP1 POP DUP3 DUP2 MSTORE PUSH1 0x20 DUP2 ADD DUP5 DUP5 DUP5 ADD GT ISZERO PUSH2 0x4FB JUMPI PUSH2 0x4FA PUSH2 0x403 JUMP JUMPDEST JUMPDEST PUSH2 0x506 DUP5 DUP3 DUP6 PUSH2 0x4BF JUMP JUMPDEST POP SWAP4 SWAP3 POP POP POP JUMP JUMPDEST PUSH0 DUP3 PUSH1 0x1F DUP4 ADD SLT PUSH2 0x522 JUMPI PUSH2 0x521 PUSH2 0x3FF JUMP JUMPDEST JUMPDEST DUP2 CALLDATALOAD PUSH2 0x532 DUP5 DUP3 PUSH1 0x20 DUP7 ADD PUSH2 0x4CD JUMP JUMPDEST SWAP2 POP POP SWAP3 SWAP2 POP POP JUMP JUMPDEST PUSH0 PUSH1 0x20 DUP3 DUP5 SUB SLT ISZERO PUSH2 0x550 JUMPI PUSH2 0x54F PUSH2 0x3F7 JUMP JUMPDEST JUMPDEST PUSH0 DUP3 ADD CALLDATALOAD PUSH8 0xFFFFFFFFFFFFFFFF DUP2 GT ISZERO PUSH2 0x56D JUMPI PUSH2 0x56C PUSH2 0x3FB JUMP JUMPDEST JUMPDEST PUSH2 0x579 DUP5 DUP3 DUP6 ADD PUSH2 0x50E JUMP JUMPDEST SWAP2 POP POP SWAP3 SWAP2 POP POP JUMP JUMPDEST PUSH0 DUP2 SWAP1 POP SWAP2 SWAP1 POP JUMP JUMPDEST PUSH2 0x594 DUP2 PUSH2 0x582 JUMP JUMPDEST DUP3 MSTORE POP POP JUMP JUMPDEST PUSH0 PUSH1 0x20 DUP3 ADD SWAP1 POP PUSH2 0x5AD PUSH0 DUP4 ADD DUP5 PUSH2 0x58B JUMP JUMPDEST SWAP3 SWAP2 POP POP JUMP JUMPDEST PUSH2 0x5BC DUP2 PUSH2 0x582 JUMP JUMPDEST DUP2 EQ PUSH2 0x5C6 JUMPI PUSH0 DUP1 REVERT JUMPDEST POP JUMP JUMPDEST PUSH0 DUP2 CALLDATALOAD SWAP1 POP PUSH2 0x5D7 DUP2 PUSH2 0x5B3 JUMP JUMPDEST SWAP3 SWAP2 POP POP JUMP JUMPDEST PUSH0 PUSH1 0x20 DUP3 DUP5 SUB SLT ISZERO PUSH2 0x5F2 JUMPI PUSH2 0x5F1 PUSH2 0x3F7 JUMP JUMPDEST JUMPDEST PUSH0 PUSH2 0x5FF DUP5 DUP3 DUP6 ADD PUSH2 0x5C9 JUMP JUMPDEST SWAP2 POP POP SWAP3 SWAP2 POP POP JUMP JUMPDEST PUSH2 0x611 DUP2 PUSH2 0x582 JUMP JUMPDEST DUP3 MSTORE POP POP JUMP JUMPDEST PUSH0 DUP2 MLOAD SWAP1 POP SWAP2 SWAP1 POP JUMP JUMPDEST PUSH0 DUP3 DUP3 MSTORE PUSH1 0x20 DUP3 ADD SWAP1 POP SWAP3 SWAP2 POP POP JUMP JUMPDEST PUSH0 JUMPDEST DUP4 DUP2 LT ISZERO PUSH2 0x64E JUMPI DUP1 DUP3 ADD MLOAD DUP2 DUP5 ADD MSTORE PUSH1 0x20 DUP2 ADD SWAP1 POP PUSH2 0x633 JUMP JUMPDEST PUSH0 DUP5 DUP5 ADD MSTORE POP POP POP POP JUMP JUMPDEST PUSH0 PUSH2 0x663 DUP3 PUSH2 0x617 JUMP JUMPDEST PUSH2 0x66D DUP2 DUP6 PUSH2 0x621 JUMP JUMPDEST SWAP4 POP PUSH2 0x67D DUP2 DUP6 PUSH1 0x20 DUP7 ADD PUSH2 0x631 JUMP JUMPDEST PUSH2 0x686 DUP2 PUSH2 0x407 JUMP JUMPDEST DUP5 ADD SWAP2 POP POP SWAP3 SWAP2 POP POP JUMP JUMPDEST PUSH0 PUSH1 0x40 DUP4 ADD PUSH0 DUP4 ADD MLOAD PUSH2 0x6A6 PUSH0 DUP7 ADD DUP3 PUSH2 0x608 JUMP JUMPDEST POP PUSH1 0x20 DUP4 ADD MLOAD DUP5 DUP3 SUB PUSH1 0x20 DUP7 ADD MSTORE PUSH2 0x6BE DUP3 DUP3 PUSH2 0x659 JUMP JUMPDEST SWAP2 POP POP DUP1 SWAP2 POP POP SWAP3 SWAP2 POP POP JUMP JUMPDEST PUSH0 PUSH1 0x20 DUP3 ADD SWAP1 POP DUP2 DUP2 SUB PUSH0 DUP4 ADD MSTORE PUSH2 0x6E3 DUP2 DUP5 PUSH2 0x691 JUMP JUMPDEST SWAP1 POP SWAP3 SWAP2 POP POP JUMP JUMPDEST PUSH0 DUP1 REVERT JUMPDEST PUSH0 DUP1 REVERT JUMPDEST PUSH0 DUP1 DUP4 PUSH1 0x1F DUP5 ADD SLT PUSH2 0x708 JUMPI PUSH2 0x707 PUSH2 0x3FF JUMP JUMPDEST JUMPDEST DUP3 CALLDATALOAD SWAP1 POP PUSH8 0xFFFFFFFFFFFFFFFF DUP2 GT ISZERO PUSH2 0x725 JUMPI PUSH2 0x724 PUSH2 0x6EB JUMP JUMPDEST JUMPDEST PUSH1 0x20 DUP4 ADD SWAP2 POP DUP4 PUSH1 0x1 DUP3 MUL DUP4 ADD GT ISZERO PUSH2 0x741 JUMPI PUSH2 0x740 PUSH2 0x6EF JUMP JUMPDEST JUMPDEST SWAP3 POP SWAP3 SWAP1 POP JUMP JUMPDEST PUSH0 DUP1 PUSH0 PUSH1 0x40 DUP5 DUP7 SUB SLT ISZERO PUSH2 0x75F JUMPI PUSH2 0x75E PUSH2 0x3F7 JUMP JUMPDEST JUMPDEST PUSH0 PUSH2 0x76C DUP7 DUP3 DUP8 ADD PUSH2 0x5C9 JUMP JUMPDEST SWAP4 POP POP PUSH1 0x20 DUP5 ADD CALLDATALOAD PUSH8 0xFFFFFFFFFFFFFFFF DUP2 GT ISZERO PUSH2 0x78D JUMPI PUSH2 0x78C PUSH2 0x3FB JUMP JUMPDEST JUMPDEST PUSH2 0x799 DUP7 DUP3 DUP8 ADD PUSH2 0x6F3 JUMP JUMPDEST SWAP3 POP SWAP3 POP POP SWAP3 POP SWAP3 POP SWAP3 JUMP JUMPDEST PUSH0 DUP1 PUSH1 0x20 DUP4 DUP6 SUB SLT ISZERO PUSH2 0x7BB JUMPI PUSH2 0x7BA PUSH2 0x3F7 JUMP JUMPDEST JUMPDEST PUSH0 DUP4 ADD CALLDATALOAD PUSH8 0xFFFFFFFFFFFFFFFF DUP2 GT ISZERO PUSH2 0x7D8 JUMPI PUSH2 0x7D7 PUSH2 0x3FB JUMP JUMPDEST JUMPDEST PUSH2 0x7E4 DUP6 DUP3 DUP7 ADD PUSH2 0x6F3 JUMP JUMPDEST SWAP3 POP SWAP3 POP POP SWAP3 POP SWAP3 SWAP1 POP JUMP JUMPDEST PUSH32 0x4E487B7100000000000000000000000000000000000000000000000000000000 PUSH0 MSTORE PUSH1 0x32 PUSH1 0x4 MSTORE PUSH1 0x24 PUSH0 REVERT JUMPDEST PUSH32 0x4E487B7100000000000000000000000000000000000000000000000000000000 PUSH0 MSTORE PUSH1 0x22 PUSH1 0x4 MSTORE PUSH1 0x24 PUSH0 REVERT JUMPDEST PUSH0 PUSH1 0x2 DUP3 DIV SWAP1 POP PUSH1 0x1 DUP3 AND DUP1 PUSH2 0x861 JUMPI PUSH1 0x7F DUP3 AND SWAP2 POP JUMPDEST PUSH1 0x20 DUP3 LT DUP2 SUB PUSH2 0x874 JUMPI PUSH2 0x873 PUSH2 0x81D JUMP JUMPDEST JUMPDEST POP SWAP2 SWAP1 POP JUMP JUMPDEST PUSH0 DUP2 SWAP1 POP DUP2 PUSH0 MSTORE PUSH1 0x20 PUSH0 KECCAK256 SWAP1 POP SWAP2 SWAP1 POP JUMP JUMPDEST PUSH0 PUSH1 0x20 PUSH1 0x1F DUP4 ADD DIV SWAP1 POP SWAP2 SWAP1 POP JUMP JUMPDEST PUSH0 DUP3 DUP3 SHL SWAP1 POP SWAP3 SWAP2 POP POP JUMP JUMPDEST PUSH0 PUSH1 0x8 DUP4 MUL PUSH2 0x8D6 PUSH32 0xFFFFFFFFFFFFFFFFFFFFFFFFFFFFFFFFFFFFFFFFFFFFFFFFFFFFFFFFFFFFFFFF DUP3 PUSH2 0x89B JUMP JUMPDEST PUSH2 0x8E0 DUP7 DUP4 PUSH2 0x89B JUMP JUMPDEST SWAP6 POP DUP1 NOT DUP5 AND SWAP4 POP DUP1 DUP7 AND DUP5 OR SWAP3 POP POP POP SWAP4 SWAP3 POP POP POP JUMP JUMPDEST PUSH0 DUP2 SWAP1 POP SWAP2 SWAP1 POP JUMP JUMPDEST PUSH0 PUSH2 0x91B PUSH2 0x916 PUSH2 0x911 DUP5 PUSH2 0x582 JUMP JUMPDEST PUSH2 0x8F8 JUMP JUMPDEST PUSH2 0x582 JUMP JUMPDEST SWAP1 POP SWAP2 SWAP1 POP JUMP JUMPDEST PUSH0 DUP2 SWAP1 POP SWAP2 SWAP1 POP JUMP JUMPDEST PUSH2 0x934 DUP4 PUSH2 0x901 JUMP JUMPDEST PUSH2 0x948 PUSH2 0x940 DUP3 PUSH2 0x922 JUMP JUMPDEST DUP5 DUP5 SLOAD PUSH2 0x8A7 JUMP JUMPDEST DUP3 SSTORE POP POP POP POP JUMP JUMPDEST PUSH0 SWAP1 JUMP JUMPDEST PUSH2 0x95C PUSH2 0x950 JUMP JUMPDEST PUSH2 0x967 DUP2 DUP5 DUP5 PUSH2 0x92B JUMP JUMPDEST POP POP POP JUMP JUMPDEST JUMPDEST DUP2 DUP2 LT ISZERO PUSH2 0x98A JUMPI PUSH2 0x97F PUSH0 DUP3 PUSH2 0x954 JUMP JUMPDEST PUSH1 0x1 DUP2 ADD SWAP1 POP PUSH2 0x96D JUMP JUMPDEST POP POP JUMP JUMPDEST PUSH1 0x1F DUP3 GT ISZERO PUSH2 0x9CF JUMPI PUSH2 0x9A0 DUP2 PUSH2 0x87A JUMP JUMPDEST PUSH2 0x9A9 DUP5 PUSH2 0x88C JUMP JUMPDEST DUP2 ADD PUSH1 0x20 DUP6 LT ISZERO PUSH2 0x9B8 JUMPI DUP2 SWAP1 POP JUMPDEST PUSH2 0x9CC PUSH2 0x9C4 DUP6 PUSH2 0x88C JUMP JUMPDEST DUP4 ADD DUP3 PUSH2 0x96C JUMP JUMPDEST POP POP JUMPDEST POP POP POP JUMP JUMPDEST PUSH0 DUP3 DUP3 SHR SWAP1 POP SWAP3 SWAP2 POP POP JUMP JUMPDEST PUSH0 PUSH2 0x9EF PUSH0 NOT DUP5 PUSH1 0x8 MUL PUSH2 0x9D4 JUMP JUMPDEST NOT DUP1 DUP4 AND SWAP2 POP POP SWAP3 SWAP2 POP POP JUMP JUMPDEST PUSH0 PUSH2 0xA07 DUP4 DUP4 PUSH2 0x9E0 JUMP JUMPDEST SWAP2 POP DUP3 PUSH1 0x2 MUL DUP3 OR SWAP1 POP SWAP3 SWAP2 POP POP JUMP JUMPDEST PUSH2 0xA20 DUP3 PUSH2 0x617 JUMP JUMPDEST PUSH8 0xFFFFFFFFFFFFFFFF DUP2 GT ISZERO PUSH2 0xA39 JUMPI PUSH2 0xA38 PUSH2 0x417 JUMP JUMPDEST JUMPDEST PUSH2 0xA43 DUP3 SLOAD PUSH2 0x84A JUMP JUMPDEST PUSH2 0xA4E DUP3 DUP3 DUP6 PUSH2 0x98E JUMP JUMPDEST PUSH0 PUSH1 0x20 SWAP1 POP PUSH1 0x1F DUP4 GT PUSH1 0x1 DUP2 EQ PUSH2 0xA7F JUMPI PUSH0 DUP5 ISZERO PUSH2 0xA6D JUMPI DUP3 DUP8 ADD MLOAD SWAP1 POP JUMPDEST PUSH2 0xA77 DUP6 DUP3 PUSH2 0x9FC JUMP JUMPDEST DUP7 SSTORE POP PUSH2 0xADE JUMP JUMPDEST PUSH1 0x1F NOT DUP5 AND PUSH2 0xA8D DUP7 PUSH2 0x87A JUMP JUMPDEST PUSH0 JUMPDEST DUP3 DUP2 LT ISZERO PUSH2 0xAB4 JUMPI DUP5 DUP10 ADD MLOAD DUP3 SSTORE PUSH1 0x1 DUP3 ADD SWAP2 POP PUSH1 0x20 DUP6 ADD SWAP5 POP PUSH1 0x20 DUP2 ADD SWAP1 POP PUSH2 0xA8F JUMP JUMPDEST DUP7 DUP4 LT ISZERO PUSH2 0xAD1 JUMPI DUP5 DUP10 ADD MLOAD PUSH2 0xACD PUSH1 0x1F DUP10 AND DUP3 PUSH2 0x9E0 JUMP JUMPDEST DUP4 SSTORE POP JUMPDEST PUSH1 0x1 PUSH1 0x2 DUP9 MUL ADD DUP9 SSTORE POP POP POP JUMPDEST POP POP POP POP POP POP JUMP JUMPDEST PUSH0 DUP2 SWAP1 POP SWAP3 SWAP2 POP POP JUMP JUMPDEST PUSH0 PUSH2 0xAFB DUP4 DUP6 PUSH2 0xAE6 JUMP JUMPDEST SWAP4 POP PUSH2 0xB08 DUP4 DUP6 DUP5 PUSH2 0x4BF JUMP JUMPDEST DUP3 DUP5 ADD SWAP1 POP SWAP4 SWAP3 POP POP POP JUMP JUMPDEST PUSH0 PUSH2 0xB20 DUP3 DUP5 DUP7 PUSH2 0xAF0 JUMP JUMPDEST SWAP2 POP DUP2 SWAP1 POP SWAP4 SWAP3 POP POP POP JUMP INVALID LOG2 PUSH5 0x6970667358 0x22 SLT KECCAK256 DUP6 EXTCODEHASH 0x2C SWAP5 0x2F PUSH21 0x27C70DE821F9EDC9A1AF6262F5835DF81CA4B1C7A5 SWAP8 0x1F PUSH7 0x28A864736F6C63 NUMBER STOP ADDMOD XOR STOP CALLER "
		},
		"gasEstimates": {
			"creation": {
				"codeDepositCost": "582800",
				"executionCost": "617",
				"totalCost": "583417"
			},
			"external": {
				"nameToNumber(string)": "infinite",
				"retreiveFavNumber()": "2455",
				"retreiveFavNumberAtIndex(uint256)": "infinite",
				"retreivePersonAtIndex(uint256)": "infinite",
				"retreivePersonFromName(string)": "infinite",
				"store(uint256)": "22536",
				"storePerson(uint256,string)": "infinite"
			}
		},
		"methodIdentifiers": {
			"nameToNumber(string)": "2fae4ffd",
			"retreiveFavNumber()": "3aade401",
			"retreiveFavNumberAtIndex(uint256)": "d7afc1dc",
			"retreivePersonAtIndex(uint256)": "5bae7047",
			"retreivePersonFromName(string)": "96c89e5c",
			"store(uint256)": "6057361d",
			"storePerson(uint256,string)": "5cb4c672"
		}
	},
	"abi": [
		{
			"inputs": [
				{
					"internalType": "string",
					"name": "",
					"type": "string"
				}
			],
			"name": "nameToNumber",
			"outputs": [
				{
					"internalType": "uint256",
					"name": "",
					"type": "uint256"
				}
			],
			"stateMutability": "view",
			"type": "function"
		},
		{
			"inputs": [],
			"name": "retreiveFavNumber",
			"outputs": [
				{
					"internalType": "uint256",
					"name": "",
					"type": "uint256"
				}
			],
			"stateMutability": "view",
			"type": "function"
		},
		{
			"inputs": [
				{
					"internalType": "uint256",
					"name": "index",
					"type": "uint256"
				}
			],
			"name": "retreiveFavNumberAtIndex",
			"outputs": [
				{
					"internalType": "uint256",
					"name": "",
					"type": "uint256"
				}
			],
			"stateMutability": "view",
			"type": "function"
		},
		{
			"inputs": [
				{
					"internalType": "uint256",
					"name": "index",
					"type": "uint256"
				}
			],
			"name": "retreivePersonAtIndex",
			"outputs": [
				{
					"components": [
						{
							"internalType": "uint256",
							"name": "number",
							"type": "uint256"
						},
						{
							"internalType": "string",
							"name": "name",
							"type": "string"
						}
					],
					"internalType": "struct SimpleStorage.Person",
					"name": "",
					"type": "tuple"
				}
			],
			"stateMutability": "view",
			"type": "function"
		},
		{
			"inputs": [
				{
					"internalType": "string",
					"name": "name",
					"type": "string"
				}
			],
			"name": "retreivePersonFromName",
			"outputs": [
				{
					"internalType": "uint256",
					"name": "",
					"type": "uint256"
				}
			],
			"stateMutability": "view",
			"type": "function"
		},
		{
			"inputs": [
				{
					"internalType": "uint256",
					"name": "_index",
					"type": "uint256"
				}
			],
			"name": "store",
			"outputs": [],
			"stateMutability": "nonpayable",
			"type": "function"
		},
		{
			"inputs": [
				{
					"internalType": "uint256",
					"name": "_favouriteNumber",
					"type": "uint256"
				},
				{
					"internalType": "string",
					"name": "name",
					"type": "string"
				}
			],
			"name": "storePerson",
			"outputs": [],
			"stateMutability": "nonpayable",
			"type": "function"
		}
	]
}